:020000040801F1
:10000000C0E100208102010829790108FB500108A4
:10001000277901082D210108E1880108000000006E
:10002000000000000000000000000000A101010825
:100030004122010800000000FD010108378201088B
:100040009B0201089B0201089B020108217D010817
:100050009B0201089B0201089B0201089B02010808
:100060009B0201089B0201089B0201089B020108F8
:10007000112201089B0201089B0201089B02010852
:100080009B0201089B0201089B0201089B020108D8
:100090009B0201089B0201089B0201089B020108C8
:1000A0009B0201089B0201089B0201089B020108B8
:1000B0009B02010800000000000000009B020108F4
:1000C0009B0201089B0201089B0201089B02010898
:1000D0009B020108D5870108E1870108E58701082F
:1000E0009B020108ED7B01080000000000000000F9
:1000F0000000000000000000000000000000000000
:10010000000000009B020108000000009B020108A3
:1001100000000000000000009B0201089B02010893
:100120009B0201089B0201089B0201089B02010837
:100130009B02010800000000000000000000000019
:100140009B0201089B0201089B0201089B02010817
:100150009B0201089B0201089B0201089B02010807
:100160009B0201089B0201089B020108000000009D
:100170009B0201089B0201089B020108000000008D
:100180009B0201089B0201089B020108DFF80CD0CA
:1001900000F09AFF0048004779C00108C0E1002044
:1001A0002C4B1968086800F05AB880F30988BFF32F
:1001B0006F8F4FF0000080F311887047000000003F
:1001C00008480068006880F308884FF0000080F35A
:1001D000148862B661B6BFF34F8FBFF36F8F00DF35
:1001E00000BF00BF08ED00E0DFF80C00016841F43B
:1001F00070010160704700BF88ED00E0EFF30980F7
:10020000BFF36F8F134B1A681EF0100F08BF20ED5D
:10021000108A20E9F04F106009B44FF0500080F3CD
:100220001188BFF34F8FBFF36F8F0DF0CBFE4FF0F0
:10023000000080F3118809BC1968086800F014B840
:100240001EF0100F08BF00F014B880F30988BFF348
:100250006F8F704710000020EFF30580704730C8A3
:10026000B0E8C04FFFF7A1BF30C8B0E8C04FFFF7FC
:10027000E7BFB0EC088AB0EC08CAFFF7E6BF0000A1
:100280000648804706480047FEE7FEE7FEE7FEE730
:10029000FEE7FEE7FEE7FEE7FEE7FEE7C9820108AC
:1002A0008D0101082DE9F05F0546002092469B462E
:1002B00088460646814640241BE02846414647467C
:1002C000224600F065FD53465A46C01A914110D3AC
:1002D00011461846224600F04CFD2D1A67EB010826
:1002E0004F4622460120002100F043FD17EB000994
:1002F0004E41201EA4F10104DFDC484631462A4667
:10030000434600F000B830BCBDE8C09F2DE9F04185
:100310000024061B254671F1000605DA012400279A
:10032000D0EB070067EB0101161E73F1000605DA3A
:100330000027D2EB0702012567EB0303FFF7B2FFAB
:1003400086460E4617469C46AC4204D00025D0EBAC
:10035000050E65EB010624B10020D2EB000760EB2F
:10036000030C704631463A466346BDE8F08110B54D
:10037000431A934209D28318881803E010F8011D2C
:1003800003F8011D521EF9D210BD40EA01039B077C
:1003900003D009E008C9121F08C0042AFAD203E0FA
:1003A00011F8013B00F8013B521EF9D210BDD2B248
:1003B00001E000F8012B491EFBD270470022F6E74E
:1003C00010B513460A4604461946FFF7F0FF2046CB
:1003D00010BD30B505462A460B4612F8010B13F83E
:1003E000014B08B1A042F8D01CB1002802D06D1C0E
:1003F000F1E7284630BD421C10F8011B0029FBD153
:10040000801A704730B505460020034600E05B1CAB
:10041000934205D2EC5CC85C201A01D1002CF6D1C5
:1004200030BD00000FB400B58DB010A909900B903D
:1004300000914FF0FF300A9000200C900548069084
:10044000054807906A4609A80F9900F0D7FC0DB03F
:100450005DF814FB190E0108370E01082DE9FF5F46
:100460001D464FF0FF3BD5E9014691465F464FF0F0
:100470000008A9697F1C01988847296A8246884735
:100480000028F6D1BAF1FF3F0CD024F4C064002E4E
:1004900019DD600614D5BAF12B0F09D0BAF12D0F72
:1004A0000ED103E0584604B000F07EB844F48064F6
:1004B000A9697F1C01988847761E8246002E02DDBE
:1004C000BAF1300F03D0B9F1000F26D032E0A9699C
:1004D000761E44F400747F1C019888478246002EE3
:1004E00005DDBAF1780F06D0BAF1580F03D0B9F193
:1004F000000F10D01EE0B9F1000F02D0B9F1100FBB
:1005000018D1A969761E24F400747F1C01988847CD
:100510008246102002E0082000E00A20814609E01F
:1005200008FB0908A969761E44F400747F1C019831
:1005300088478246002E05DD4946504600F04AFCB9
:100540000028EDDAE96901988847A00502D46FF028
:100550000100A8E7E00725D1600613D5600502D5A4
:10056000C8F1000000E0404629680A1D2A600968B9
:10057000220501D5087015E0220701D5088011E099
:1005800008600FE02868011D29600068210502D578
:1005900080F8008006E0210702D5A0F8008001E085
:1005A000C0F8008038467EE730BCBDE8C09F000040
:1005B0002DE9FF4F087883B09946FF2805D0491CE4
:1005C0002D2804D00024002008E000200BE00124A6
:1005D000F9E700EB800003EB4000491C0B78FF2B90
:1005E000F7D104B1404200230293147819461D4606
:1005F0002D2C01D02B2C04D1521C2D2C13D00024D7
:100600000294AA461478FF2C0FD00A25A3FB057884
:1006100001FB05814FF0000C03FB0C11521CE31988
:100620004AEB0101EEE70124EAE7814453EA0100C5
:1006300002D019F5C87F06DA03980021C0E900113D
:1006400007B000F065B90025AE4E2F46DFF8B8823E
:10065000184600F0FDFCCDE90001B9F1000002DA16
:10066000C9F1000400E004460023A74A1AEB030B7B
:1006700042EB045A12E0E00707D02A4633463846D8
:10068000414600F0F7F9074688462A4633461046A9
:10069000194600F0EFF905460E466410002CEAD129
:1006A000DDE90001B9F1000F5A46534606DA00F0C1
:1006B00056FA3A46434600F052FA05E000F0DAF9FD
:1006C0003A46434600F0D6F9029A0AB181F0004159
:1006D000039AC2E90001B3E72DE9FF4F1F468DB031
:1006E000D7E901464FF0FF382E2045464FF000096C
:1006F0000B90B9696D1C0E988847396A8246884705
:100700000028F6D1BAF1FF3F0AD024F4D064002EBD
:1007100011DDBAF12B0F08D0BAF12D0F0BD102E089
:10072000404611B08DE744F48064B9696D1C0E98A1
:1007300088478246761E6946600501D52D2000E077
:100740002B208DF8000001F1010B0DF1200809E0CC
:10075000B9696D1C0E98884782460F9844F400745E
:10076000761E0560002E02DDBAF1300FF0D00B9935
:100770008A453ED144F0800406E00F99681CA9F137
:10078000010944F400740860B9696D1C761E0E9866
:10079000884782463028F0D02BE00B998A4505D156
:1007A000200603D444F08004761E18E0504609F079
:1007B0007AFF08B30DF11301761E44F400748B45E3
:1007C00008D2AAF130000BF8010B200607D5A9F1D9
:1007D000010003E0200602D409F101008146A005D2
:1007E00002D50F99681C0860B9696D1C0E9888477E
:1007F0008246002ED1DC53E0002E51DDBAF1650FA8
:1008000002D0BAF1450F4BD1A00549D5B9696D1C8D
:1008100024F44074761E0E9888478246002E0CDD24
:100820002B2804D0BAF12D0F07D144F48074B96994
:100830006D1C0E9888478246761EE00501D52D2155
:1008400000E02B2108F8011BCDF82C8021E00DF1F0
:100850002901761E44F4007488450CD2AAF13000B8
:1008600010F0FF0088F8000002D10B99884509D9E3
:1008700008F1010806E0E00501D5244801E042F254
:100880000F708146B9696D1C0E98884782460F9893
:100890000560002E04DD504609F005FF0028D6D182
:1008A000F9690E988847FF208BF8000088F800004F
:1008B0000020069007904B466A4608A906A8FFF755
:1008C00077FEA00502D46FF001002AE714F0240F90
:1008D0000AD0E00714D1DDE906123868031D3B6039
:1008E0000068C0E900120BE0DDE9060100F00FFA34
:1008F0000146E00704D13868021D3A6000680160D3
:1009000028460EE7000014400000F03FF1D8FFFF3A
:1009100030BCBDE8C08F2DE9FE4F804681EA030060
:10092000C00F0C46009021F0004123F00045B8EBC9
:100930000200A94105D24046214690461C460B467E
:10094000024623F00040104347D0270DC7F30A00AA
:10095000C3F30A510290401A019040286BDAC3F3A6
:10096000130040F4801B0098924620B10023D2EB84
:10097000030A63EB0B0B01985946C0F14002504645
:1009800000F0F7F906460D4650465946019A00F028
:100990000FFA10EB08006141002487EA115284EA43
:1009A000E7731A4340D0009A62B3019A012A4FEAD2
:1009B000075215DC001B61EB02014FF0004202EA16
:1009C0000752CDE90042001C41F5801132462B460A
:1009D00000F088FA03B000F045B840462146F9E738
:1009E000001B61EB0201001C41F5801300185B4104
:1009F0002018A2F5001747EB030140EAD570B6199D
:100A00006D4111E06D084FEA360645EAC0754FEAC0
:100A10000752001B61EB0201001C41F580114908DF
:100A20004FEA30000019514132462B4603B000F026
:100A30001CB800F048BA0098012240000023D0EB17
:100A4000020263EBE073009821464FEAE074B8EBD2
:100A5000000061EB0401E9E783F000435BE781F00C
:100A6000004158E730BCBDE8C08F30BCBDE8C04F86
:100A7000FFF7DFBF2DE9FE4F81EA030404F00044D5
:100A800021F0004100944FF0000B23F0004350EAA6
:100A900001045ED052EA03045BD0C3F30A54C1F3ED
:100AA0000A552C44A4F2F3340194A0FB0254C1F380
:100AB000130141F48011C3F3130343F4801301FBCA
:100AC000024400FB034E840A970A44EA815447EA31
:100AD0008357A4FB076802958D0A05FB07854FEA3B
:100AE000932C04FB0C542705029D4FEA065847EA55
:100AF0001637B5EB08056EEB070C870E920E47EA2A
:100B0000811742EA8312A7FB0201B6EB0B0164EBEB
:100B100000042B0D43EA0C335E1844EB1C50DA46FC
:100B20005146E7FB0201C5F313044FEA0B3343EAD6
:100B300014534FEA0432019C43EA0603A4F10C0467
:100B40000294009CCDE900B400F0CCF903B000F0B1
:100B500003B800200146F9E730BCBDE8C08F2DE99D
:100B6000F04D81EA030404F0004B21F000451446E7
:100B70004FF0000A23F0004150EA050220D054EA69
:100B800001021DD0C5F30A570246C5F31303C1F392
:100B90001300C1F30A5640F4801543F48013A7EB09
:100BA0000608101BD64608F2FD3873EB050002D389
:100BB00008F1010801E092185B41B8F1000F03DA77
:100BC00000200146BDE8F08D00204FF4801106465C
:100BD00084460EE0171B73EB050705D3121B63EB6E
:100BE000050306434CEA010C49084FEA300092180D
:100BF0005B4150EA0107EDD152EA030012D082EACC
:100C0000040083EA0501084305D0101BAB4106D25E
:100C10000122002306E000224FF0004302E06FF0C3
:100C2000010253101AEB06004CEB085110EB0A00BE
:100C300041EB0B01BDE8F04D00F045B90EB5C10F19
:100C400080EAE0700844CA07002140F233438DE88F
:100C50000E000A460B4600F045F903B000BD0EB584
:100C600040F2334102910021CDE900110A460B46C2
:100C700000F038F903B000BD70B5C1F30A5201F0BD
:100C800000450024C1F3130140F2FF3341F4801109
:100C90009A4201DA002070BD40F233439A42A2F238
:100CA000334203DC524200F073F800E090402C43E2
:100CB000F1D0404270BDC1F30A5210B5C1F3130127
:100CC00040F2FF3341F480119A4201DA002010BD56
:100CD00040F233439A42A2F2334203DC524200F024
:100CE00057F810BD904010BD00F0004230F00040B9
:100CF0000AD0C10D01F56071C0F3160042EA01513E
:100D0000C20840071143704700200146704701F0B8
:100D1000004330B421F0004150EA010206D00A0D30
:100D2000A2F56072C1F31301002A02DC30BC00207E
:100D30007047440F44EAC104C100E01830BC00EB26
:100D4000C25000F089B830B50B4601460020202281
:100D5000012409E021FA02F59D4205D303FA02F5C8
:100D6000491B04FA02F52844151EA2F10102F1DC28
:100D700030BD202A04DB203A00FA02F1002070473F
:100D80009140C2F1200320FA03F3194390407047C9
:100D9000202A04DB203A21FA02F00021704721FAD0
:100DA00002F3D040C2F12002914008431946704737
:100DB000202A06DBCB17203A41FA02F043EAE0731F
:100DC00006E041FA02F3D040C2F12002914008430C
:100DD000194670473A2800D2303820F02002412AC4
:100DE00001D3A2F13700884201D34FF0FF307047A2
:100DF000026811441378016018467047D1600449B5
:100E000051610449116200211161114600F074B969
:100E1000F10D0108ED100108426842B1016811F8B6
:100E2000013B23B1521EC0E9001218467047012150
:100E3000C160881E704742685AB1C368016843B9EF
:100E400083688B4205D0491E521CC0E90012002065
:100E500070474FF0FF3070470029A8BF7047401C13
:100E6000490008BF20F00100704710B4B0FA80FCC0
:100E700000FA0CF050EA010404BF10BC704749B1FD
:100E8000CCF1200421FA04F411FA0CF118BF01216D
:100E900021430843A3EB0C01CB1D4FEA00614FEA4D
:100EA000102042BF002010BC704700EBC35010441C
:100EB0000029A4BF10BC7047401C490008BF20F0A7
:100EC000010010BC704710B5141E73F1000408DA5D
:100ED000401C41F1000192185B411A4301D120F0FE
:100EE000010010BD2DE9F04D92469B4611B1B1FABB
:100EF00081F202E0B0FA80F220329046FFF739FF2B
:100F000004460F4640EA0A0041EA0B0153465A469E
:100F1000084313D0114653EA010019D0C8F140022A
:100F20005046FFF735FF05460E46504659464246A5
:100F3000FFF71FFF084305D0012004E02046394693
:100F4000BDE8F08D0020054346EAE0762C433743A8
:100F50000A986305E40AA0EB08000022FD0A44EAAF
:100F600047540A3002D500200146E9E7010510196F
:100F70006941DDE9084500196941BDE8F04DA2E786
:100F800070B521F0004303430CD0C1F30A5500248F
:100F9000D5EB040564EB0403D617AD1AB34102DBAD
:100FA0000020014670BD201841EB025170BD2DE9B3
:100FB000F04D00231A461B1A8A4103DB002001462C
:100FC000BDE8F08DC1F30A52C1F3130141F480155D
:100FD0004FF0000BD10702D100186D41521E0027BF
:100FE000044640F2FF11384601EB620A3E46804655
:100FF000024600204FF48011FFF7CAFEC21971416A
:10100000BB1846EB0100B4EB030C75EB000C04D3EA
:10101000E41A65EB000517460E46241908F1010095
:101020006D4180463428E3DDF91946EB0600091BC3
:10103000A84103D24FF0FF32134601E000221346CD
:101040001BEB070046EB0A51BDE8F04DFFF73BBF35
:101050000EB540F2334202920022CDE9002213463F
:10106000FFF740FF03B000BDC1F30A52C1F3130103
:1010700040F2FF3341F480119A4202DA0020014627
:10108000704740F233439A42A2F2334202DC5242AA
:10109000FFF77EBEFFF76DBE30B5041E71F1000490
:1010A00004DB4FF00044404264EB0101141E73F175
:1010B000000405DB1C464FF00043524263EB04037F
:1010C000994208BF904230BD064C074D06E0E068EB
:1010D00040F0010394E8070098471034AC42F6D37F
:1010E000FFF758F858AD020878AD0208C0B24FF4C7
:1010F000F05100F09BB900002DE9F34F8BB04FF099
:10110000000801F10C000C464FF0010B46460DF1B2
:10111000080A01906269012101989047051E2DD0AF
:10112000252D2CD0216A8847C0B162690121019820
:101130009047216A88470028F7D1411E62690198CB
:10114000904700E0761CA1690B988847216A884780
:101150000028F7D1E1690B988847DBE7A1690B9874
:1011600088470746A84201D1761CD3E7E1690B986E
:1011700088477F1C02D1B8F1000F6FD046E10027ED
:1011800062693D463946019890472A2804D1626930
:101190000121019890470125DFF8849262690121BD
:1011A00001989047A0F130010A290AD24F45E5DCA9
:1011B00007EB870100EB4107303FDFD445F0100516
:1011C000ECE7E90601D46FF000476C280AD04C2800
:1011D00014D0682815D06A280DD074281CD07A281D
:1011E0001AD01DE062690121019890476C2802D055
:1011F00045F0040514E045F002050DE045F020053A
:101200000AE06269012101989047682802D045F000
:10121000080505E045F400656269012101989047E1
:10122000C4E9015765283DD019DC58287AD00CDC78
:10123000452837D004DC252826D0412831D131E09B
:1012400046282FD047282CD12CE05B2877D0612866
:1012500028D063287CD0642823D15AE0D0E06F28BE
:1012600048D008DC66281DD067281BD0692821D00B
:101270006E2816D127E0702845D0732868D07528CD
:1012800047D078280DD14DE0A1690B9888470546D5
:1012900025283FF469AFE1690B9888476D1C3FF43E
:1012A0006AAFB3E023466A466FF001000B99FFF77F
:1012B00013FA9EE045F040006060A80723464FF017
:1012C000000236D43EE0E8077FF447AF2068011DF6
:1012D00021600068290501D506701BE7290701D5A3
:1012E000068017E7A90703D5F117C0E9006111E7E8
:1012F00006600FE745F040006060A80723464FF006
:10130000080216D41EE040F60E0125EA01006060D6
:1013100016E045F040006060A80723464FF00A023F
:1013200007D40FE045F040006060A80708D52346C9
:1013300010226FF001000B99AFF3008059E007E035
:10134000234610226FF001000B99FFF787F850E059
:101350004FF000094F464B46632802D05B2806D069
:1013600040E0E80601D40120A06001273AE062696C
:101370000121019890475E2805D14FF0010962696B
:10138000494601989047216939B900210A465346D8
:1013900043F82120491C0829FADBB0B3216969B957
:1013A000C11700EBD16253110AEB830122F01F0237
:1013B000821A01200B68904003430B60626901218F
:1013C000019890475D28E8D1B9F1000F09D00020BD
:1013D000514651F82020D24341F82020401C0828D3
:1013E000F7DB02AB224600976FF001000B99AFF3D9
:1013F000008000280CDA401C08D1BBF1000F05D09A
:101400004FF0FF300DB000F00DB8FFE74046F9E7B0
:10141000E90701D108F1010806444FF0000B79E615
:10142000CCCCCC0C30BCBDE8C08F00007F2801D9EB
:10143000002208E0064A02EB5002C007127800D1F1
:10144000120902F00F02012090400840704700008E
:1014500078AA020870B58C1810F8015B15F0070324
:1014600001D110F8013B2A1106D110F8012B03E03D
:1014700010F8016B01F8016B5B1EF9D12B0705D445
:101480000023521E0DD401F8013BFAE710F8013B8E
:10149000CB1A921C03E013F8015B01F8015B521EAA
:1014A000F9D5A142D8D3002070BD00002DE9F0414C
:1014B000044600270D46006805F0DEF80646206861
:1014C00005F0D6F8304359D02068C1682C4E890108
:1014D00005D5617E012902D1217E01290BD0022D83
:1014E0001DD0206805F0C8F8B8B120688168C1F344
:1014F000400169B111E00125224902E08F422ED25C
:101500007F1C0268D2435206F8D440210160E8E70C
:101510008168314041F010018160012D11D02068B7
:1015200005F0A6F848B120688168C1F3400121B9EF
:101530008168314041F020018160022D08D0032DE7
:1015400004D0042501F054FF064613E00C25F9E70A
:101550000825F7E701F04CFF801B05280AD9606DCC
:1015600040F010006065A06D40F00100A065012012
:10157000BDE8F081206880682842EBD10020F7E7C1
:10158000C0FFFF7F000040A310B5846A616D11F0B9
:10159000500F06D0616DC90625D5204601F0CBFB62
:1015A00010BD606D40F40070606520680168090737
:1015B00016D505F065F878B12068C0688004002869
:1015C0000ADB606D20F480706065606DC00403D438
:1015D000606D40F001006065204601F0AAFB10BD7F
:1015E000C0688007EBE7E16C496BBDE81040084735
:1015F00010B5806A416D41F040014165816D41F057
:101600000401816501F097FB10BD10B5806A01F0FF
:1016100091FB10BD70B50446006881688268C1F313
:10162000400112F0010F24D019BB816801F00D01B7
:10163000012910D18168104A1140891C81602168FC
:101640000320086001F0D4FE05460EE001F0D0FE54
:10165000401B022809D9606D40F010006065A06D44
:1016600040F00100A065012070BD20688068C007BF
:10167000ECD1002070BD0000C0FFFF7F70B50446B4
:101680000068816811F0010F28D18168144A114265
:1016900015D18168D5432940491C816001F0A8FE1D
:1016A000064616E0816811F0010F03D181682940D8
:1016B000491C816001F09CFE801B022809D9606DE5
:1016C00040F010006065A06D40F00100A0650120B1
:1016D00070BD20680168C943C907E3D1002070BD0F
:1016E0003F000080014801F089BC00001C970020E9
:1016F00070B588B018216846FEF760FE2F4C2E4862
:10170000002620604FF44030C4E901060120C4E9FE
:10171000036066616076E06184F820606662A662BC
:10172000E66284F83000204601F006FB08B100F0C4
:10173000C1FF22490020643121F81060401C0828B4
:10174000FADB1F4800900620CDE901067F200390B8
:101750000420CDE904066946184801F0F1F808B103
:1017600000F0A8FF1748816C41F001018164806C92
:10177000124D00F00100069074351348C5E90006CB
:101780008020AE60C5E90360400068618000A86108
:101790002020E861C0012862284601F0B1FC08B1B0
:1017A00000F088FF0549E564082264310348AC6213
:1017B00001F0CAFB08B070BD000004501C97002067
:1017C00040002019001002400800024008B5694698
:1017D000042000F01DF89DF8001006A007F0CAFADA
:1017E0009DF8000040F001018DF80010042000F089
:1017F0002BF808BD513234323935207265673034E8
:101800003A3078253032782B2B2B2B0D0A00000034
:101810007CB50D468DF8040042F21074012301AA34
:10182000D6210848009401F02FFF38B901232A4639
:10183000D7210448009401F091FE08B100207CBD3E
:1018400001207CBD689100201CB502238DF80400A6
:1018500042F210708DF80510009001AAD6210448BC
:1018600001F012FF08B100201CBD01201CBD0000CA
:101870006891002070B5064609F05AFE01780429E7
:1018800001D2002070BD4278914201D04170F8E74A
:10189000841C002565540570457031462046FEF7CE
:1018A00098FD0028EED00C490978032911D10D3498
:1018B00084420ED210F8011C0A290AD110F8021C29
:1018C0000D2906D100F8025D821F04A1064807F029
:1018D00061FA012070BD00007003002044495645A4
:1018E0004D41534B2D2573002899002070B50E4CA7
:1018F000FF26049D2670DF266670A070E1702271BD
:1019000065712A461946A01DFEF731FD2C44A91D1C
:10191000054809F01FFBE08005F10801BDE87040B3
:10192000014800F083BB0000609800202DE9FE43D1
:10193000044680784FF000080227012546464FF6FE
:10194000FF710B2819D2DFE800F07F061519253149
:10195000424F61787C003EA007F00CFA414801AB91
:101960004680866005708DF8046000952279E178E4
:1019700081200CE0204600F08BFB65E08DF80450E0
:101980008DF8056000972279E17801AB8320FFF79D
:10199000ADFF59E06179A01D00F0E2FA8DF8046016
:1019A00000952279E17801AB8220F0E7A07901EA85
:1019B0000021E0790843ADF8080005F0DBFE8DF862
:1019C000046000952279E17801AB8520DFE730469D
:1019D000ADF8086005F0CEFE8DF804600095227920
:1019E000E17801AB8620D2E702A805F023FEBDF81E
:1019F00008008DF80500000AADF808008DF8040015
:101A000000972279E17801AB8720C0E700F0DCF98C
:101A100010B18DF804500AE0A07901EA0021E079C4
:101A20000843ADF8080000F0A3F88DF804600095B5
:101A30002279E17801AB8820A9E7204600F018F868
:101A400002E0204600F05CF8404600F00DB80000CF
:101A50007374617274207570646174652E2E2E0D1E
:101A60000A0000003899002006BCBDE8F883000099
:101A70007CB5044600794FF6FF71E67801EA002054
:101A80000643304600F064F801253146E0B115A068
:101A900007F070F900208DF8040000952279E178B4
:101AA00001AB8220FFF722FFF6016279A11D3046CB
:101AB00005F054FD6079802813D2304405F056FDBE
:101AC00085F3138805F042FF0AA007F053F90620BA
:101AD0008DF8040000952279E17801AB8220FFF7B0
:101AE00005FF7CBD0D0A7265633A256420200D0A4E
:101AF0000000000065786973742025640D0A0000F9
:101B000070B5124C06464021A01D00F047F805466E
:101B1000FF202070DF2060708A20A070F078E070D5
:101B20003079207168006071062000EB450104EBFC
:101B30004504064809F00EFAE080082000EB450154
:101B4000BDE87040014800F071BA000060980020C4
:101B5000064A00F00701C0F3C7009268105C01223A
:101B60008A40104000D00120704700007003002020
:101B700070B5094DC0F3C704A880400701D0641CAC
:101B8000E4B2214600200BF057F92146A860BDE8D9
:101B90007040FF22FEF70BBC70030020F0B5154C1F
:101BA00086460020A288C2F3C705520701D06D1CEB
:101BB000EDB200224FF0010C19E0A3689B5CABB1C1
:101BC0000023A668B75C0CFA03F637420BD003EB90
:101BD000C206A788B6B2BE420BD22EF81060401CD7
:101BE000C0B2884205D25B1C082BEADB521CAA4219
:101BF000E3DBF0BD70030020034840F21A41806827
:101C0000B0FBF1F0C0B27047389900202DE9F047E1
:101C1000434C0626204621780327002540784FF4C0
:101C200080584FF09049092922D2DFE801F0050BD6
:101C3000113D54637223360000224146484601F0AC
:101C4000D1FB0AE0082137A000F0F0F902201FE0E4
:101C500028B137A0FFF70EFE20B1277051E0082110
:101C600035A052E06078401CC0B26070032848D8AC
:101C7000BDE8F08770B12EA0FFF7FCFD0028F1D081
:101C800000F0EAF901224146484601F0ABFB08208A
:101C9000207036E00E212BA037E000224146484656
:101CA00001F0A0FB2770657009F042FC42780178D2
:101CB00028A007F05FF8607850B11DA0FFF7DAFDAB
:101CC0000028CFD0264800780028CBD00420DFE7BA
:101CD000092124A019E070B9214A25A1A2F1C80068
:101CE00007F058F81E48C838FEF785FB01461C4827
:101CF000C8380AE038B10EA0FFF7BCFD0028B1D00B
:101D000026706570B4E70A211CA000F08FF9657099
:101D1000A8E708B1401E6070BDE8F04700F08CB83D
:101D20007003002054544D3A5253542D00000000CB
:101D300054544D3A4F4B000054544D3A5453542D83
:101D40000000000054544D3A4250532D3131353289
:101D50003030000025642B25642B0D0A00000000A4
:101D60002899002054544D3A4D41432D3F00000026
:101D700054544D3A52454E2D2573000054544D3A5B
:101D80004144562D4F4E000010B500F017F90122C6
:101D900011034FF0904001F025FB05490020087029
:101DA00004490870BDE8104003A006F0E3BF00003E
:101DB000700300203899002042545F496E69742EE8
:101DC0002E2E2E2E2E0A000002488068002800D0F9
:101DD00001207047389900200A490B784A789342CD
:101DE00001D100207047074B9B1CD25C02704878E1
:101DF000C822401CC0B2B0FBF2F302FB13004870D3
:101E000001207047C093002006498A1C0B78985423
:101E10000878401CC0B2C822B0FBF2F302FB1300EA
:101E200008707047C093002002484078002800D016
:101E300001207047700300202DE9FC4109F078FB78
:101E4000044601783448042902D21421817061E0EB
:101E50008178491ECAB28270FF2141702078617872
:101E6000884201D0607055E000250126082844D33F
:101E7000A178FF2902D1E178DF290FD065702570A4
:101E800002208DF80400002201AB1146822000964A
:101E9000FFF72CFD21A006F06DFF3BE0E17901F199
:101EA0000803834229D804F109004FF6FF72085C49
:101EB00002EA002004F108028A5C891D42EA000857
:101EC000A01C09F047F887B247450FD004208DF8D1
:101ED0000400002201AB114682200096FFF706FDA8
:101EE0003A46414611A006F045FF13E065702570A3
:101EF000A01CFFF71BFDBDE8FC815AB96570257079
:101F000007208DF80400002201AB114682200096C4
:101F1000FFF7ECFC0020EEE77003002068656164C9
:101F2000206572726F72210D0A0000007265633ABB
:101F3000253034782073656C663A253034780D0A84
:101F400000000000054C207808B1322000E0642039
:101F50000BF03AFFFFF75AFEF5E700003899002032
:101F600000B587B001788DF8171041788DF81510FD
:101F700081788DF81610C1788DF8141001798DF8DC
:101F8000001041798DF8011080798DF80200002051
:101F9000FF21CDE90101039004908DF80300024672
:101FA0006946054802F078FB002205A9024802F0C4
:101FB0000BFB07B0012000BDFC7E002010B5124CC9
:101FC00010480C2120604FF4165060600020A06083
:101FD000E060C4E90401A061E06120626062204623
:101FE00002F06CFF10B109A006F0C4FE2068016881
:101FF00041F4907101602068C168BDE8104008A0FC
:1020000006F0B8BE00480040B491002042545F552D
:10201000617274335F496E697420657272200A00C0
:102020004252523A253034780D0A000070B50D4600
:102030000646002403E0305DFFF7E6FE641CAC4278
:10204000F9D3002D05D003480068016841F0400134
:10205000016070BDB49100200C4801680A6822F04C
:1020600001020A6001680A6822F490720A6002683C
:1020700040F2B621D16001680A6842F490720A60A9
:102080000068016841F0010101607047B4910020CF
:102090007CB5044600794FF6FF7101EA0020E17833
:1020A0001A4E01430125708888420FD00A46014626
:1020B00017A006F05FFE05208DF804000095227938
:1020C000E17801AB8220FFF711FC7CBD13A006F084
:1020D00051FE00208DF8040000952279E17801ABD3
:1020E0008220FFF703FC6079A41D3071F460802822
:1020F00007D20121054805F0A3FA85F3138805F0FE
:1021000025FC0021014805F09BFA7CBD3899002090
:102110003D25642025640D0A000000000D0A72654B
:10212000633A256420200D0A00000000FEE700004D
:1021300070B51249124C8A7849782379C1EB0111A4
:1021400002EB8101E278C3EB031302EB830295B249
:1021500004F11402938A5E1903E000BF01F5616186
:1021600089B28E42FAD8491B89B2CB1A012B01DC05
:10217000002802D091820120A16070BD347F002030
:1021800034980020074A117851B15278824201D325
:10219000101A03E0814203D9081A1044C0B27047F4
:1021A000002070476B03002070B52DED028BB0EE60
:1021B000408AF0EE608A51EC180BFEF75DFD642159
:1021C00090FBF1F0FEF73AFD0D4645EC110B04468D
:1021D00053EC182B51EC110BFEF741FC9FED0A1B41
:1021E00053EC112BFEF7BBFC41EC100B45EC114BF3
:1021F00053EC102B51EC110BFEF78DFBBDEC028B59
:1022000041EC100B70BD00000000000000004E40CB
:10221000704730B590F8444004F01C050124AC40F0
:10222000056C6C60046863608368102B036803D0DE
:1022300099600068C26030BD9A600068C16030BDBE
:10224000704700002DE9F041FFF7BEFD7F4D30B132
:1022500000F01CFA28780B287DD00B20A4E009F0B0
:102260004FF90446042814D100F010FA002003F0BE
:1022700035FC00224FF480714FF0904001F0B2F82D
:1022800014200BF0A1FD002006F000FD012003F05A
:102290004BFB2B78002014216D4F6E4E63220B2BCD
:1022A00059D2DFE803F00610263E516E8DABB3BE67
:1022B000CC00032C4FD101200BF0FCF8BDE8F0411D
:1022C00065A006F057BD012C0BD0072C0BD0052CB8
:1022D0000BD00B2C07D0092C3DD1387838B10A200F
:1022E00062E0E87041E000205EE003205CE0022054
:1022F0005AE0032CF7D0012C0AD0072CF3D0052C80
:1023000009D00B2C0BD0092C25D16970012004E0D9
:102310006970032001E069700220307043E0012001
:1023200042E0032CFBD0012C0AD0072CDBD0052C7B
:1023300008D00B2CF3D0092C0DD1072034E00AE093
:10234000082031E009202FE04849012C05D0052C58
:102350000DD00B2CE3D0BDE8F0810A782AB1E978E2
:10236000491CC9B2E9708A42BBD904201CE0087834
:102370000028FAD0E97811B1491EE970F5E7401E4E
:10238000AFE7012C0AD0022C08D0052C10D0062C67
:102390000ED0092CDFD1A970062005E0687808B1BD
:1023A000401E08E06A700520BDE8F0410BF082B8DD
:1023B0006978632901D36870F5E7491C6970F2E711
:1023C000012C0DD0022C0BD0052C0FD0062C0DD0DB
:1023D000092CC0D100200BF06DF830783870BAE7C6
:1023E000A87808B1401E04E0AA70B4E7A978632970
:1023F00001D3A870AFE7491CA970ACE7032C8ED0BD
:10240000072C93D00B2C3FF470AFA4E7032C86D09D
:10241000012CF8D0072C89D0052CF3D105F07AF9DE
:1024200061E7032C86D0012C07D0072CF8D0052CAF
:10243000E8D1012005F086F984E70020FAE7092CAD
:1024400002D0052CECD086E7387050E7540300200A
:10245000B1030020B00300206172726976652068C4
:10246000657265202B2B2B2B0D0A00006B030020BF
:1024700010B51E4C40F69A31A089884235D81C49C7
:1024800004F11400DFED1B0A91ED0A0ABCEEC00A4C
:1024900010EE102A028291ED0B0A30EE600ADFED99
:1024A000160A30EE600AF2EE040A20EE200ABCEEB4
:1024B000C00A10EE101A89B24182E2898A4200D223
:1024C000E1819FED0E0B094980ED000B80ED020BC1
:1024D0001C31A1F1080000F017FA0A48A1898078A0
:1024E00000F080F8A089401CA08110BD3498002025
:1024F000489900208FC21D41295C0F3E000000005A
:10250000000000006803002010B5054CA07800F022
:102510005DF8FF200349A0700020886010BD000016
:1025200068030020349800202DE9FE43002635463C
:102530004FF001084FEA0D0705EB850041000A2224
:10254000684606F04FFA0024385D012802D00228C0
:1025500001D110E086B105EB8500410007F8048049
:102560000A22684606F0CCFA05EB850004EB400031
:10257000C0B200F027B80126641C0A2CE4DB6D1CF5
:102580000A2DD9DB02254FF001024FF00A016846FF
:10259000AEB1FDF70CFF092404EB840041000A22D0
:1025A000684606F0ADFA641C002CF5DC8DF800508E
:1025B0000A220021684606F0A3FA0020D9E7FDF7B9
:1025C000F6FEF3E706BCBDE8F88300004FF4806137
:1025D00000EB800001EB80011422014806F090BA64
:1025E0003498002000EB80004FF4A05202EB8030C2
:1025F00001EB410100EBC1011822014806F080BA4D
:102600004898002010B5002219491A4801F02AFF05
:1026100000221949174801F003FF17491748002401
:10262000CA7882704A7842708978017010490A78B5
:1026300042714A7802718978C1708460104984813E
:10264000C481097881740F4991ED0A0ABCEEC00A71
:1026500010EE101A0182FFF767FF0B498870FFF731
:10266000B5FF064814308482BDE81040FFF700BF74
:10267000347F0020FC7E00207C0000203498002065
:10268000B10300204899002068030020074810B5D6
:102690000178002909D000210170054C02E03220A8
:1026A0000BF092FBA0680028F9D110BDB103002007
:1026B000349800207047000070B5204886B0C16C87
:1026C00041F00101C164C16C01F001010591C16CCF
:1026D00041F00201C164C06C012400F002000590C9
:1026E00002204FF48055CDE90240CDE900544FF06F
:1026F00090466946304600F0A9FD4FF48370CDE95D
:1027000000040320CDE902400D4C6946204600F04C
:102710009DFD012006F0BAFA01220421204600F0B6
:1027200061FE00222911204600F05CFE00222946AD
:10273000304600F057FE06B070BD000000100240A9
:1027400000040048104830B4837800210322052B90
:1027500007D2DFE803F003080B150D000122827099
:10276000C17030BC704702218170FAE78270F8E7CF
:10277000C3785B1CDBB2C370322B01D98270C1708D
:1027800030BC00F013B8000097000020064CA07881
:10279000032802D064200BF017FB0A200BF014FB77
:1027A000FFF7D0FFF3E70000970000202DE9FE437C
:1027B0003C4801210268116202680221116202682C
:1027C00004211162006808210162374F387800281F
:1027D00003D07978884202D0787000F091B83148FF
:1027E0004FF00009783080F86390007824284DD1AC
:1027F0002C4806222DA17830FDF704FE2D4901F169
:102800001C06351F01F110040831884638B12548EF
:10281000062229A17830FDF7F5FD20B10CE00B462A
:10282000244A27A102E0234A43462DA11D488DE8F2
:1028300070007830FDF7F6FD1E4CE069002825DDBC
:1028400094ED000B51EC100BFEF735FAFF21B0FBB5
:10285000F1F201FB120204F12005000AAA70B0FB9C
:10286000F1F201FB12026A70000AB0FBF1F201FB07
:102870001200287094ED020BFFF796FC85ED020B19
:1028800094ED040BFFF790FC85ED040B87F80090A6
:1028900087F8019003B00348BDE8F0436421783025
:1028A000FDF78CBD909400209700002024475047EE
:1028B000474100003896002024474E47474100001A
:1028C0002447504747412C256C662C256C662C4EBE
:1028D0002C256C662C452C25642C25642C000000CE
:1028E00024474E4747412C256C662C256C662C4EA0
:1028F0002C256C662C452C25642C25642C000000AE
:1029000006BCBDE8F88300009FED030B80ED000BD3
:1029100081ED000B70470000000000000000000087
:102920000021064A084600BF32F81030401CC0B2F1
:1029300019440828F8D3C1F3CF00704780970020CE
:102940002DE9F84F00270446009790F85000DFF873
:10295000B0930D46B846012811D0012684F8506086
:10296000206803F089FE60B1606D40F02000606572
:102970005FF0010784F85080384600F0D7B9022094
:10298000FBE768680C23052812D8022807D0032823
:1029900007D0042807D0052807D0062007E06B6081
:1029A00006E0122003E0182001E04FF48070686018
:1029B000D5E9002103EA9113206801F01F011844B2
:1029C0004FF01F0C0CFA01FC036BC2F3846223EA84
:1029D0000C038A4013430363206803F04DFE8246D4
:1029E000206803F045FE5AEA00001DD1AA68296854
:1029F000206803F04DFE20686969C268C2F3C10215
:102A0000520091402A69042A0FD000EB82002B6803
:102A1000DFF8F0C2026E03F0F84302EA0C020B4347
:102A20001A4342F00041016672E0002103F01AFEF1
:102A3000400320684FF0000172D003F013FE90FABB
:102A4000A0F0B0FA80F1286842036ED090FAA0F0AE
:102A5000B0FA80F0814204D100221146206803F0D0
:102A600026FE0121206803F0FDFD400320684FF0A1
:102A700001015DD003F0F6FD90FAA0F0B0FA80F10C
:102A80002868420359D090FAA0F0B0FA80F0814251
:102A900004D100220121206803F009FE02212068F0
:102AA00003F0E0FD400320684FF0020148D003F03E
:102AB000D9FD90FAA0F0B0FA80F12868420344D022
:102AC00090FAA0F0B0FA80F0814204D100220221F5
:102AD000206803F0ECFD0321206803F0C3FD4003F0
:102AE00020684FF0030133D003F0BCFD90FAA0F052
:102AF000B0FA80F1286842032FD090FAA0F0B0FA23
:102B000080F0814204D100220321206803F0CFFD30
:102B10002068816811F0010F22D0ACE000E004E0F1
:102B200003F0A0FDC0F384618DE7C0F3846091E7FA
:102B300003F098FDC0F38461A2E7C0F38460A6E7C8
:102B400003F090FDC0F38461B7E7C0F38460BBE796
:102B500003F088FDC0F38461CCE7C0F38460D0E764
:102B60002A7B296850F8B03FC1F3120C23EA0C030A
:102B700002F0180C644A22FA0CF20A401343036074
:102B8000E968494577D1286841031CD090FAA0F143
:102B9000B1FA81F1491C01F01F0109294FEA4031C6
:102BA00032D8002912D000BF90FAA0F1B1FA81F119
:102BB00001F1010101F01F0106FA01F609D100BF80
:102BC000C0F3846109E0C0F38461E3E7C0F384618A
:102BD000EEE790FAA0F1B1FA81F101F1010101F003
:102BE0001F0146EA816102D1C0F3846003E090FADC
:102BF000A0F0B0FA80F000F1010000F01F0000EB3F
:102C0000400041EA005132E000290ED090FAA0F1D4
:102C1000B1FA81F101F1010101F01F0106FA01F69B
:102C200006D100BFC0F3846106E0C0F38461F1E720
:102C300090FAA0F1B1FA81F101F1010101F01F0157
:102C400046EA816102D1C0F3846003E090FAA0F00B
:102C5000B0FA80F000F1010000F01F002B4A00EBF9
:102C6000400002EB005041EA000141F00071AA6807
:102C7000206803F00DFD26482A6802423FF47AAE30
:102C800024488168244D254B01F0E071AA421AD1F5
:102C90000D0218D422689A427FF46CAE826841F427
:102CA000000122F0E0720A4382601D481D4900685D
:102CB000B0FBF1F000EB4000800000E0401E00900F
:102CC0000028FBD156E6184DAA4207D1CD0105D404
:102CD00022689A42F6D141F080710AE06FF0004517
:102CE000EA42EFD14A02EDD422689A42EAD141F495
:102CF0008001826822F0E0720A4382603AE60000B6
:102D000000007F4000F0FF03FFFF0700000020FEEF
:102D10000000088000030450000052C70000045067
:102D20000C000020400D0300000084CB18BCBDE85F
:102D3000E08F704770477047F8B54FF0000504000A
:102D40002E46009502D0606D10B107E00120F8BD5D
:102D5000204600F0C7F8A66584F8506020688168B6
:102D6000C1F3407119B18168564A114081602068F1
:102D70008168C1F3007179B98168534A114041F00B
:102D800080518160514852490068B0FBF1F000E089
:102D9000401E00900028FBD120688168C1F30071BB
:102DA00041B9616D41F010016165A16D41F0010112
:102DB000A165012503F060FC616DC90600D430B146
:102DC000606D40F01000606501252846F8BD606D1B
:102DD00020F4807040F0020060652068806810F088
:102DE000010F0BD13B48806810F0010F06D13A4823
:102DF0006168826822F47C120A438260E168606B39
:102E0000627E0843A16841EA4231084394F82010E9
:102E100040EA0140012904D1A18C304A02EB414132
:102E20000843A16A29B101F47071E26A014342EAE0
:102E300001002168CA682A4B1A400243CA60206810
:102E400003F01AFC0646206803F012FC304315D14B
:102E5000207E94F83010800340EA41022068C16867
:102E600044F2020399431143C16094F838000128E9
:102E70000CD02068016921F001010161206901285D
:102E80002068016B21F00F0111D013E0D4E90F018C
:102E90000843D4E911121143084321680A6940F23A
:102EA000FC739A43104340F001000861E6E7E269D1
:102EB000521E11430163606D20F0020040F00100DA
:102EC000606582E7C0FFFF5FC0FFFF7F0C0000204E
:102ED000400D030000000450000304500000FEFFFA
:102EE00007C0F0FF30B5164887B0C16C41F40051FF
:102EF000C164C16C01F400510591C16C41F0010144
:102F0000C164C16C01F001010591C16C41F0020185
:102F1000C164C06C0B2400F0020005900220002563
:102F20008DE8310069464FF0904000F08FF90120A4
:102F30008DE831006946034800F088F907B030BDDC
:102F4000001002400004004870B5044615460E46C5
:102F5000006803F091FBE0BB94F85000012842D0D8
:102F6000012084F850002046FEF788FB002110B1B4
:102F700084F8501070BD606D40F60162904340F4DB
:102F800080706065606DC00404D5A06D20F00600FF
:102F9000A06500E0A165E26C1448D062E26C1448C0
:102FA0001063E26C1348506322681C20106084F8A0
:102FB00050102068416841F0100141602068C168EC
:102FC00041F00101C16021682B4632464031E06C7E
:102FD00000E008E000F0F4F821688A68064B1A4027
:102FE000121D8A6070BD022070BD000089150108A5
:102FF0000B160108F1150108C0FFFF7F70B50446EC
:1030000090F85000012809D0012084F850000321D5
:103010002046FEF74BFA050002D027E0022070BDE3
:103020002068C16821F00101C160E06C90F82510B2
:10303000022907D100F01FF8050003D0606D40F0B1
:10304000400060652068416821F010014160204621
:1030500015B1FEF7DFFA09E0FEF7DCFA050005D14D
:10306000606D20F4885040F001006065002084F815
:103070005000284670BDC8B101680A6822F00E02EF
:103080000A6001680A6822F001020A6090F84410A0
:10309000036C01F01C02012101FA02F25A6080F86F
:1030A0002510002180F82410084670470120704741
:1030B00010B590F825100024022903D00421C16323
:1030C00001241AE001680A6822F00E020A60016811
:1030D0000A6822F001020A6090F84410036C01F0C3
:1030E0001C02012101FA02F25A6080F82510002129
:1030F00080F82410816B01B18847204610BD000084
:1031000070B568B12B4C036814212B4AA34209D235
:103110002A4C1C44B4FBF1F18900C0E910210BE0FA
:10312000012070BD234C64421C44B4FBF1F18900C2
:103130004164204908390164022180F825101C6887
:1031400047F6F0718C43D0E902152943D0E90456C3
:103150003543294385692943C5692943056A2943BC
:10316000214319608168B1F5804F19D0036C0F219C
:10317000934202D152F8A83F02E00E4AA0321368EF
:1031800090F8444004F01C04A1408B43136090F875
:103190004430416803F01C039940136819431160DF
:1031A0000021C163012280F8252080F82410084600
:1031B00070BD00000804024000000240F8FFFDBF9F
:1031C00070B5044690F82400002501280CD0012099
:1031D00084F8240094F825600020012E06D084F89D
:1031E00024000225284670BD022070BD022684F806
:1031F0002560E0632068066826F001060660204628
:10320000FFF707F8206B00282068016802D041F022
:103210000E0106E021F0040101602068016841F020
:103220000A0101602068016841F001010160D9E7ED
:1032300070B5044600F0DCF80546601C00D0641C44
:1032400000F0D6F8401BA042FAD370BD2DE9F84F2C
:10325000DFF864B100234FF0010C4FF0030A4FF088
:103260000F090BF1040EA0E00CFA03F6324072D005
:103270004C68022C01D0122C0ED1DC0800EB840823
:10328000D8F820405D07EF0E09FA07F5AC430D6949
:10329000BD402543C8F8205007685D0091F80480C0
:1032A0000AFA05F408F00308A74308FA05F848EA03
:1032B0000708C0F800804F68012F05D0022F03D007
:1032C000112F01D0122F11D18768D1F80C80A7439C
:1032D00008FA05F848EA0708C0F808804768B743C5
:1032E0000E79C6F300169E403E434660C668A6436C
:1032F0008C68AC403443C4604C68E40054D52F4C17
:10330000256E45F001052566246E23F0030504F0C3
:10331000010400942A4C2E19B4689D072F0F09FA56
:1033200007F5AC43B0F1904F04D0264DA84203D12D
:10333000012512E0002510E0234DA84201D102250D
:103340000BE0224DA84201D1032506E0204DA84202
:1033500002D1042501E027E00725BD402543B560E3
:10336000DBF800405D464E689443F60300D51443F5
:103370002C60DEF8004075464E689443B60300D5D5
:1033800014432C600C4D08352C684E689443F602AB
:1033900000D514432C60084D0C352C684E689443BE
:1033A000B60200D514432C605B1C0A6832FA03F4A1
:1033B0007FF45AAF00F00EB8000401400010024044
:1033C000000001400004004800080048000C0048CC
:1033D0000010004818BCBDE8E08F0069084000D02C
:1033E000012070470AB18161704781627047000017
:1033F00001480068704700000800002090F8412054
:10340000202A24D190F84020012A20D0012280F8DF
:103410004020242280F841200268136823F0010331
:1034200013600268136823F4805313600268136802
:103430000B43136001680A6842F001020A60202110
:1034400080F84110002180F84010084670470220A3
:10345000704790F84120202A22D190F84020012A7C
:103460001ED0012280F84020242280F841200268EA
:10347000136823F0010313600268136823F4706378
:1034800043EA0121116001680A6842F001020A6002
:10349000202180F84110002180F840100846704734
:1034A0000220704770B5040004D094F84100002554
:1034B00010B106E0012070BD84F84050204600F0B5
:1034C00079F9242084F841002068016821F0010185
:1034D00001606068216820F0706008612068816880
:1034E00021F400418160E0680128A06807D040F421
:1034F000044021688860E068022803D006E040F4B8
:103500000040F6E721684FF4006048602068416899
:10351000114A114341602068C16821F40041C16033
:10352000D4E904010843A16940EA01202168C86088
:10353000D4E907010843216808602068016841F068
:10354000010101606564202084F84100256384F84E
:103550004250002070BD0000008000022DE9F84FAD
:10356000044690F84100DDF828A01F4690468B469F
:1035700020287ED194F8400001287AD0012084F8D8
:103580004000FFF735FF0646012200901923D103C2
:10359000204601F01DFEE0BB222084F841001020EF
:1035A00084F8420000256564C4F82480678565635B
:1035B000618D3148FF274FF080784FF00079FF2967
:1035C00003D927853A46009039E0618D2185009026
:1035D0003AE05946204601F0E5FD13E001F024FEF3
:1035E000B8B92068406A616A0870606A401C60620D
:1035F000208D401E80B22085618D491E6185618DC0
:1036000001B168B1608D3246002851462046E5D1AF
:1036100000E002E001F04AFED0B1012000F030B835
:103620005346002280212046009601F0D1FD00285B
:10363000F3D1608DFF2804D927853A46009543468B
:10364000C7E7608D2085009594F828204B46C0E799
:1036500021682020C86121684A68084B1A404A60E6
:1036600084F8410084F8425084F840500020D5E7A7
:10367000FFE70220D2E700000024008000E800FEFF
:1036800018BCBDE8E08F00002DE9F84F044690F823
:103690004100DDF828A01F4690468B4620287ED1A9
:1036A00094F8400001287AD0012084F84000FFF708
:1036B0009FFE0646012200901923D103204601F007
:1036C00087FDE0BB212084F84100102084F84200EF
:1036D00000256564C4F8248067856563618D314881
:1036E000FF274FF080784FF00079FF2903D9278515
:1036F0003A46009039E0618D218500903AE05946C4
:10370000204601F04FFD13E001F0F6FDB8B9606A04
:10371000216800788862606A401C6062608D401E8B
:103720006085208D401E80B22085618D01B168B119
:10373000608D3246002851462046E5D100E002E087
:1037400001F0B4FDD0B1012000F030B853460022A2
:1037500080212046009601F03BFD0028F3D1608DCA
:10376000FF2804D927853A4600954346C7E7608D70
:103770002085009594F828204B46C0E7216820203A
:10378000C86121684A68084B1A404A6084F84100C1
:1037900084F8425084F840500020D5E7FFE702202B
:1037A000D2E700000020008000E800FE18BCBDE861
:1037B000E08F000010B586B0044614216846FCF77F
:1037C000FDFD1249206888421ED1114CE06C40F08A
:1037D0000200E064E06C694600F002000590C02041
:1037E00000901220019001200290032003900420F9
:1037F00004900848FFF72AFDA06D40F40010A06572
:10380000A06D00F40010059006B010BD00540040FB
:10381000001002400004004802480168491C016091
:10382000704700000800002010B50024032000F0BD
:1038300069F80F2000F008F808B1012401E000F059
:103840001BF8204610BD000070B5054609484FF42E
:103850007A7100240068B0FBF1F001F077FA08B14A
:10386000012404E000222946501E00F02BF82046D7
:1038700070BD00000C0000200B4882B0016E41F0CA
:1038800001010166016E01F001010091816D41F0BD
:1038900080518165806D002200F0805000900F21E2
:1038A000901E02B000F00EB80010024000F01F029F
:1038B000012191404009800000F1E020C0F8001192
:1038C00070470000F0B40E4B1B680C46C3F3022394
:1038D000C3F10705042D00D90425191D072901D2BC
:1038E000002300E0DB1E012606FA05F1491E2140F7
:1038F00099409E40761E16403143F0BC04F015B846
:103900000CED00E0064900F0070208684FF6FF03DF
:10391000184040EA0220034A104308607047000044
:103920000CED00E00000FA051649B0F5007F0868CC
:10393000C0F3412009D0022805D0086820F4C060F7
:1039400040F480600860002070470128FBD00868C0
:1039500020F4C06040F4007008600B483222006818
:1039600050430A4AB0FBF2F0401C00E0401E4A6996
:10397000520501D50028F9D148694005E3D5032057
:1039800070470000007000400C00002040420F0013
:103990000248006800F4C0607047000000700040FA
:1039A0000248016841F48071016070470070004076
:1039B0002DE9F84F044600270088B54D3E46000526
:1039C00015D5606C60B1B0F5000F04D0B0F5400FB4
:1039D0002BD001270AE0E86840F48030E86024E05A
:1039E0000021201D04F02EF807001ED03E4620685E
:1039F00080033AD5A86D4FF00008C00009D4A86D27
:103A000040F08050A865A86D4FF0010800F080508C
:103A10000090DFF880A2DAF8001041F48071CAF853
:103A20000010FFF7E5FC814610E0D5F88800616CD6
:103A300020F440000843C5F88800D8E7FFF7D8FC19
:103A4000A0EB0900022801D9032705E0DAF80000FD
:103A5000C005F3D5002F7DD04FEA0706B8F1000F5F
:103A600003D0A86D20F08050A8652078C00707D04B
:103A7000D5F88800216A20F003000843C5F88800C3
:103A80002078800707D5D5F88800616A20F00C00FF
:103A90000843C5F888002078400707D5D5F8880086
:103AA000A16A20F030000843C5F88800207880061D
:103AB00007D5D5F88800E16A20F440600843C5F8CE
:103AC00088002088800507D5D5F88800E16B20F4B0
:103AD00040200843C5F888002088400507D5D5F860
:103AE0008800216C20F440100843C5F88800207835
:103AF000400607D5D5F88800216B20F440500843D4
:103B0000C5F888002078000607D5D5F88800616BD5
:103B100020F440400843C5F888002088C00507D538
:103B2000D5F88800A16B20F440300843C5F8880020
:103B300020884FF0006780044FF0806850D5D5F89A
:103B40008800A16C20F040600843C5F88800A06C94
:103B5000B84200E005E03BD1E86840F48010E8603E
:103B60003EE0D5F8900010F4407014D0E16D814231
:103B700011D0D5F89000D5F8901020F4407041F4A1
:103B80008031C5F89010D5F8901021F48031C5F837
:103B90009010C5F89000C00711D0FFF729FC074628
:103BA00041F2883907E000BFFFF722FCC11B4945FD
:103BB00001D9032652E7D5F890008007F4D5D5F84F
:103BC0009000E16D20F440700843C5F8900045E78F
:103BD000404505D10121201D03F034FF00B1064608
:103BE0002068000317D5D5F88800E16C20F040600C
:103BF0000843C5F88800E06CB84204D1E86840F496
:103C00008010E86007E0404505D10121201D03F048
:103C100019FF00B106462068400317D5D5F8880083
:103C2000216D20F040600843C5F88800206DB8423F
:103C300004D1E86840F48010E86007E0404505D111
:103C40000121201D03F0FEFE00B10646208840043D
:103C500011D5D5F88800616D20F040500843C5F8B3
:103C60008800606DB0F1805F05D10221201D03F056
:103C7000E9FE00B106462088000406D555F8880FF5
:103C8000A16D20F0804008432860304600F004B861
:103C9000001002400070004018BCBDE8E08F00003A
:103CA0002DE9F0470F46050058D03F4E306800F030
:103CB0000700B84209D2306820F00700384330606E
:103CC000306800F00700B84248D12878374CC00768
:103CD0002CD06868032811D0022812D0216898B12E
:103CE000490500293ADAA16821F003010143A160E6
:103CF000FFF77EFB804641F2883910E02168890198
:103D0000EFE721688903ECE78907EAE7FFF770FB33
:103D1000A0EB0801494502D90320BDE8F087A0685F
:103D2000696800F00C00B0EB810FEFD128788007B4
:103D300005D5A068A96820F0F0000843A0603068AD
:103D400000F00700B8420BD9306820F00700384374
:103D50003060306800F00700B84201D00120DCE795
:103D60002878400705D5A068E96820F4E06008439A
:103D7000A0602878000706D5A068296920F4605063
:103D800040EAC100A06000F03BF8A168084AC1F316
:103D90000311515C01F01F01C84006490860BDE8ED
:103DA000F0470F20FFF750BD0020024000100240F6
:103DB0005CE301080C00002005480649006889689A
:103DC000054AC1F30221515C01F01F01C840704750
:103DD0000C000020001002409CE301080548064941
:103DE00000688968054AC1F3C221515C01F01F01D6
:103DF000C84070470C000020001002409CE30108FE
:103E000070B52549002318468A68CC6812F00C0268
:103E100004F00306214C224D09D00C2A05D0042AB7
:103E200026D0082A00D1284670BD012E10D10B687B
:103E30001B0704D4D1F89430C3F3032302E00B68CA
:103E4000C3F30313174E56F823307AB10C2AEBD183
:103E5000C86800F00302C868C0F30210401C022AC0
:103E600008D0032A09D0B3FBF0F008E0184670BD73
:103E7000204670BDB4FBF0F001E0B5FBF0F0CA687D
:103E8000C968C2F306225043C1F34161491C49008D
:103E9000B0FBF1F070BD0000001002400024F400FF
:103EA00040787D016CE301082DE9F84305007CD0E2
:103EB000FD4CA06800F00C06E06800F003072878CD
:103EC000C00662D576B10C2E01D1012F0AD0A869A7
:103ED0000028206878D040F001002060FFF788FAC1
:103EE000804659E02068800702D5A8690028DED006
:103EF000296A2068000703D5206800F0F00004E07C
:103F0000D4F89400F02202EA1010814216D9084633
:103F100003F02EFE002848D1206840F00800206001
:103F20002068296A20F0F000084320606068E96991
:103F300020F47F4040EA0120606015E0206840F0F6
:103F4000080020602068296A20F0F0000843206003
:103F50006068E96920F47F4040EA01206060286AD7
:103F600003F006FE0028D6D1FFF74AFFA168CF4A2A
:103F7000C1F30311515C01F01F01C840CC49086036
:103F80000F20FFF761FC00287ED12EE0FFF730FA0A
:103F9000A0EB0800022878D820688007F6D52068B2
:103FA00040F008002060206801E0BBE00CE0296AD6
:103FB00020F0F000084320606068E96920F47F4049
:103FC00040EA0120606010E020F001002060FFF76F
:103FD0000FFA804606E000BFFFF70AFAA0EB0800E0
:103FE0000228D8D820688007F6D42878C00740D0A7
:103FF000082E18D00C2E01D1032F14D06868B0F50C
:10400000803F17D0B0F5A02F206817D020F4803063
:104010002060206820F4802020606868E0B1FFF70D
:10402000E7F9804614E02068800322D568680028FC
:1040300078D01EE0206840F48030EDE740F4802026
:104040002060F7E7FFF7D4F9A0EB08006428A2D8B6
:1040500020688003F6D50CE0FFF7CAF9804605E03A
:10406000FFF7C6F9A0EB0800642894D82068800305
:10407000F6D4287880073BD5042E11D00C2E01D120
:10408000022F0DD0E86801E05EE1B8E0002820686A
:104090001ED040F480702060FFF7AAF907460CE0BC
:1040A000206840050CD5E8680028C1D008E000BFB2
:1040B000FFF79EF9C01B022893D820684005F7D56A
:1040C0006068297C20F0F85040EA016060600FE0F1
:1040D00020F480702060FFF78BF9074605E000BFF1
:1040E000FFF786F9C01B0228B1D820684005F7D435
:1040F0002878000729D568690028D4F8940012D0E0
:1041000040F00100C4F89400FFF772F9074604E09C
:10411000FFF76EF9C01B022871D8D4F8940080070D
:10412000F6D512E017E120F00100C4F89400FFF783
:104130005FF9074605E000BFFFF75AF9C01B0228E8
:104140005DD8D4F894008007F6D42878400766D567
:10415000A06D0027C00008D4A06D40F08050A0657D
:10416000A06D012700F08050009052480168C905F9
:1041700012D40168814641F480710160FFF738F97B
:10418000804605E0FFF734F9A0EB0800022836D896
:10419000D9F80000C005F5D5A868012816D0052873
:1041A000D4F8900017D020F00100C4F89000D4F8A3
:1041B000900020F0040000BFC4F89000A86841F20D
:1041C0008839C0B1FFF714F980460FE0D4F89000A9
:1041D00040F00100F0E740F00400C4F89000F5E77B
:1041E000FFF706F9A0EB0801494508D8D4F890007C
:1041F0008007F5D50EE0FFF7FBF8804606E07CE08F
:10420000FFF7F6F8A0EB0801494576D8D4F89000FE
:104210008007F5D41FB1A06D20F08050A0652878EC
:10422000800628D5686A0028D4F8980012D040F09B
:104230000100C4F89800FFF7DBF8074605E000BF6F
:10424000FFF7D6F8C01B02287DD8D4F89800800765
:10425000F6D510E020F00100C4F89800FFF7C8F888
:10426000074604E0FFF7C4F8C01B02286BD8D4F857
:1042700098008007F6D4A86AF0B30C2E6BD0022801
:10428000206820F08070206018D02068000103D4DE
:10429000E06820F00300E060E06807490840E06063
:1042A000FFF7A6F8054651E0001002405CE3010864
:1042B0000C00002000700040FFFFEEFEFFF798F8B2
:1042C000064604E0FFF794F8801B02283BD82068DC
:1042D0008001F7D4286B55F82C1F000110380843D3
:1042E000298A1E4A490802EB4151AA6841EA022183
:1042F0000843297D490801E02BE024E04FF07E428D
:1043000002EB41610843297B40EAC160E06020681C
:1043100040F080702060E06840F08070E060FFF75F
:1043200067F8054605E000BFFFF762F8401B02286A
:1043300009D820688001F7D50BE000BFFFF758F8D7
:10434000401B022802D90320BDE8F88320688001C1
:10435000F4D40020F8E70120F6E700000000E0FFB9
:1043600070470068503050F82100704708B5006869
:10437000503000EB81000090026008BD70470000E3
:1043800010B50B4904464FF4801008602068C168DE
:10439000490508D5C16801F0800161F49061C160F0
:1043A0002046FFF7EBFF012084F8210010BD00003C
:1043B0001404014001A004F0DDBC0000414C415256
:1043C0004D2041210D0A000010B5144904464FF458
:1043D0008020086020688168C9040BD5C168C905C0
:1043E00008D5C16801F0800161F4C071C160204648
:1043F000FFF7E0FF2068816889040BD5C168890553
:1044000008D5C16801F0800161F42071C1602046C7
:10441000FFF7A6FF012084F8210010BD140401401D
:1044200010B500680B4641680D480140080CD87073
:10443000C1F304245C7001F03F049C70C1F342316D
:10444000197052B903F0D8FBD870587803F0D4FB38
:104450005870987803F0D0FB9870002010BD0000D1
:104460003FFFFF0010B50B460168896A596001687B
:104470000969C1F30E019960006801680D480140A7
:10448000C1F305401870C1F306245C7001F07F048D
:104490009C70890DD97052B903F0AEFB1870587832
:1044A00003F0AAFB5870987803F0A6FB98700020E0
:1044B00010BD00007F7F7F002DE9F04104004FF028
:1044C000010553D094F82100002528B9002084F874
:1044D0002000204600F050F8022084F821002168D6
:1044E000CA204862216853204862204603F09AFBA4
:1044F000FF26042718BB206881681E4A114081608E
:10450000216888686268A369104322691A431043CE
:1045100088602168E068086120680169228941EAB1
:10452000024101612068C16821F08001C1602068FA
:104530008068800609D4204600F02EF928B1206852
:10454000466284F82170012510E02068C16C21F0DA
:104550000301C1646169E06908432168CA6C1043C2
:10456000C86420684662012084F821002846BDE81E
:10457000F0810000BFFF8FFF10B5124CAAB054F8B5
:10458000580F40F080502060206800F08050299043
:10459000FFF706FA042018900020229001201A90BC
:1045A00018A8FFF781FC4FF40030009040121790DC
:1045B0006846FFF7FDF9A06B40F40040A0632AB005
:1045C00010BD0000001002402DE9F047044690F8AD
:1045D00020000B46012820D04FF0010984F82090DC
:1045E000022084F82100DAB19878D97840EA0145B0
:1045F00058781978000240EA413005432168CA2002
:104600004862216853204862204603F00BFB0026D5
:10461000FF274FF0040860BB1AE00220BDE8F087D6
:104620005878C10603D500F0EF000A305870D878EA
:1046300003F0EBFA0504587803F0E7FA45EA0025A1
:10464000987803F0E2FA0543187845EA4035D5E753
:1046500010480540206845602068C16821F080014D
:10466000C1602068806880060BD4204600F094F872
:1046700038B12068476284F8218084F820600120E6
:10468000CCE72068476284F8219084F820600020FD
:10469000C4E700003FFFFF002DE9F047044690F813
:1046A000200092460D46012815D04FF0010884F8ED
:1046B0002080022084F821002168CA2048622168F5
:1046C00053204862204603F0ADFAFF274FF004095B
:1046D0000026E8BB02E00220BDE8F0872068BAF1BE
:1046E000000F80684FEA406005D0002817DA28786C
:1046F00003F082FA14E0002800DBEE70287803F063
:1047000084FA0304687803F080FA43EA0023A87867
:1047100003F07BFA0343E87843EA80500AE0EE7046
:10472000A8782978EA7840EA01406978090241EAE4
:104730008251084317490840216808602068816851
:1047400021F480218160D5E903010843216800E05C
:104750000FE08A68104388602068C16821F08001FA
:10476000C1602068806880060BD4204600F014F8F1
:1047700038B12068476284F8219084F820600120D5
:10478000AAE72068476284F8218084F8206000202E
:10479000A2E700007F7F7F0070B504460068C16813
:1047A00021F0A001C160FEF723FE05464FF47A76A2
:1047B00007E000BFFEF71CFE401BB04201D90320FA
:1047C00070BD2068C0688006F4D5002070BD2DE95A
:1047D000F041040005D00025A56294F85D0018B1F1
:1047E00007E00120BDE8F08184F85C50204600F02D
:1047F00045F8022384F85D302068016821F040010B
:104800000160E0684FF4E066B04201D9002101E0A8
:104810004FF48051B0F5706F02D0B04200D0A56265
:10482000276B012227B9B04201D9236300E022633C
:10483000D4E901031843D4E9043633431843238BE6
:1048400003F400731843E3691843236A1843A36A07
:10485000184323681860636B606AA66918430427CD
:10486000E36807EA16463343184308432168486063
:10487000256684F85D200020B4E700002DE9F047AC
:104880000646006831490027314C022586B04FF0BA
:1048900003084FF00509884217D1E06C40F0010091
:1048A000E064E06C00F001000590206E40F4805060
:1048B0002066206E694600F480500590A0208DE8A7
:1048C000A1034FF09040FEF7C1FC22493068DFF8A9
:1048D00088A088421AD1E06C40F00200E064E06CED
:1048E00000F002000590A06D40F48040A065A06D2E
:1048F00002AA00F4804005908800CDE9000501205F
:1049000082E8210269465046FEF7A0FC1349306850
:10491000884218D1A06D40F40040A065A06D00F45D
:1049200000400590E06C40F00200E064E06C6946F5
:1049300000F00200059038208DE8A10106200490C7
:104940005046FEF783FC06B0BDE8F087003001401A
:10495000001002400038004000040048003C0040C5
:104960002DE9F84F044690F85C0000271D461646D6
:10497000894601280DD04FF0010B84F85CB0FEF79A
:1049800037FD804694F85D00BA46012804D002271E
:104990009FE0022000F0A3B8B9F1000F6FD0002E05
:1049A0006DD0032084F85D00C4F860A0C4F838908E
:1049B000A687E687C4F840A0A4F844A0A4F846A0BF
:1049C000C4F850A0C4F84CA0A068B0F5004F04D1C2
:1049D0002068016841F4804101602068016849064F
:1049E00003D4016841F040010160E068B0F5E06F78
:1049F000606823D908B1012E1CD1A06B2168008802
:104A0000C86006E020688168890709D5A16B09881C
:104A1000C160A06B801CA063E08F401EE08709E0AE
:104A2000FEF7E6FCA0EB0800A84202D3681C01D008
:104A300046E0ADB3E08F0028E4D136E008B1012EA6
:104A400030D1E08F0128A06B03D921680088C860AD
:104A50000FE021680078087314E0E08722E0206806
:104A60008168890714D5E18F0129A16B08D90988CC
:104A7000C160A06B801CA063E08F801EEDE727E083
:104A800009780173A06B401CA063E08F401EE4E72F
:104A9000FEF7AEFCA0EB0800A84202D3681C01D0D0
:104AA0000EE06DB1E08F0028D9D14246294620465C
:104AB00003F04AFA08B120202066A06810B105E092
:104AC000032706E02068C16880680090206E00B16E
:104AD000012784F85DB084F85CA038465AE718BC1A
:104AE000BDE8E08F2DE9F05F044690F85C000027F8
:104AF0000A9E1D4692468B464FF0010901280ED0B2
:104B0000012084F85C00FEF773FC804694F85D0099
:104B1000616801280CD0B1F5827F07D102E0022044
:104B200000F011B9A16809B9042801D0022700E1F9
:104B3000BBF1000F24D0BAF1000F21D005B394F8D7
:104B40005D00042802D0052084F85D000020206666
:104B5000C4F840A0A4F84650A4F84450C4F838B0B3
:104B6000E587A587E0642065E0684FF4E06188424E
:104B700001D8012D06D92068426822F4805205E050
:104B80000127D6E02068426842F4805242602068E3
:104B90000268520603D4026842F040020260E068F4
:104BA0008842606845D908B1012D3AD1A06B2168CF
:104BB0000088C860A06B801CA063E08F401EE08767
:104BC0002FE02068816889070FD5E18F69B1B9F1BD
:104BD000010F0AD1A16B0988C160A06B801CA06382
:104BE000E08F401EE0874FF0000920688168C90708
:104BF0000FD0B4F8461061B1C068216C0880206CF9
:104C0000801C2064B4F84600401EA4F846004FF013
:104C10000109FEF7EDFBA0EB0800B04201D3701CC8
:104C200075D1E08F0028CCD1B4F846000028C8D157
:104C300076E008B1012D6CD1E08F0128A06B08D976
:104C400021680088C860A06B801CA063E08F801E74
:104C500007E0216800780873A06B401CA063E08F18
:104C6000401EE08755E02068816889071AD5E18FEA
:104C7000C1B1B9F1010F15D1E18F0129A16B07D99C
:104C80000988C160A06B801CA063E08F801E06E0D5
:104C900009780173A06B401CA063E08F401EE08781
:104CA0004FF0000920688168C90728D0B4F8461081
:104CB00029B3B4F84610012914D9C068216C0880C2
:104CC000206C801C2064B4F84600801EA4F84600C6
:104CD000B4F84600012810D82068416841F480519A
:104CE00041600AE0007B216C0870206C401C20644D
:104CF000B4F84600401EA4F846004FF00109FEF744
:104D000077FBA0EB0800B04202D3701C01D018E082
:104D1000BEB1E08F0028A6D1B4F846000028A2D189
:104D200042463146204603F00FF910B101272020FA
:104D30002066012084F85D00002084F85C0038467D
:104D4000EEE60327F5E730BCBDE8C09F10B5401E76
:104D5000B0F1807F01D3012010BD4FF0E0246061ED
:104D60000F21601702F0E1FD0020A0610720206103
:104D7000002010BD704770472DE9F04102680446DD
:104D8000D0691168936810F00F0F4FF000055BD0E9
:104D900003F0010601F49077374369D0C70707D0C5
:104DA000CF0505D501271762626F42F001026267E5
:104DB000820708D5DA0706D0276802223A62626FB6
:104DC00042F004026267420708D5DA0706D023687A
:104DD00004221A62626F42F00202626702070AD579
:104DE00001F02002324306D0236808221A62626F63
:104DF00042F008026267626F002A32D0800605D551
:104E0000880603D5216E09B120468847606F0007E8
:104E100003D420688068400625D5204603F012FBA5
:104E200020688168490619D5816821F040018160B8
:104E3000E06E98B120498163E06EFEF739F90028F1
:104E40000FD0E06E816B06E0860611D58E060FD579
:104E5000216E1EE02046BDE8F04108472046FFF7DE
:104E60008AFFBDE8F0812046FFF785FF6567F8E718
:104E7000C60209D55B0207D54FF4801010622046A8
:104E8000BDE8F041FFF776BF030605D50B0603D555
:104E9000616E0029DED1E4E74006E2D54806E0D5A0
:104EA0001168204621F040011160202184F8711022
:104EB000656600F021F9D4E73184010810B50400DB
:104EC00003D094F8710010B107E0012010BD00205C
:104ED00084F87000204600F027F8242084F8710040
:104EE0002068016821F001010160204603F016FBF3
:104EF0000128EBD0606A10B1204603F007FA206861
:104F0000416821F4904141602068816821F02A01C4
:104F100081602068016841F0010101602046BDE820
:104F2000104003F057BA0000F0B587B004461421D2
:104F30006846FBF743FA3B4F266800223A490223B2
:104F4000032407254FF09040BE421FD10E6E46F459
:104F500080460E660E6E06F480460596CE6C46F0D0
:104F60000106CE64C96C02AE01F001010591610237
:104F7000CDE9001386E834006946FEF767F90022A0
:104F800005212520FEF79EFC252021E0274FBE426B
:104F900022D18E6D46F400368E658E6D06F4003695
:104FA0000596CE6C46F00106CE64C96C02AE01F0E7
:104FB000010105910C21CDE9001386E83400694612
:104FC000FEF744F9002205212620FEF77BFC26206F
:104FD000FEF76CFC07B0F0BD15488642FAD1886D2B
:104FE00040F480208865886D00F480200590C86CAE
:104FF00040F00200C864C86C02AE00F002000590E8
:105000004FF44060CDE9000386E834006946094862
:10501000FEF71CF9002211462720FEF753FC27203B
:10502000D6E7000000380140001002400044004074
:10503000004800400004004830B590F87230202B42
:105040004AD1B1B1AAB190F87030012B44D00123FC
:1050500080F870304165A0F85820A0F85A2000224E
:1050600002661D038168FF23A94207D1016911B1BE
:105070000CE0012030BD40F2FF110DE07F2419B19A
:10508000B1F1805F05D009E0016901BBA0F85C3097
:1050900004E00169D9B13F21A0F85C1042672221E8
:1050A00080F8721001688B6843F001038B6081689F
:1050B000A94201D1016969B10849016680F87020EF
:1050C0000068016841F490710160002030BDA0F8D3
:1050D0005C40E3E70249F0E7022030BDC1840108EB
:1050E0006584010800680349884201D103F07CBB54
:1050F00070470000003801407047FEE701688A6988
:10510000D243920701D400228A6200688169C943B0
:10511000C90703D0816941F0010181617047000036
:105120002DE9F0410446006890460E468069C04370
:10513000C00633D40025202720688069C04380063C
:1051400015D5701CF8D0FEF753F9A0EB0800B0425B
:1051500001D8002EF0D154F8440F40F0200044F85C
:1051600004096770A57025700120BDE8F0812168F1
:105170001020C8612068C7612046FFF7BFFF54F8C0
:10518000440B4168064A11404160206840F0040029
:1051900044F820096777A5772577E5E70020E4E75D
:1051A00000E800FEF0B50568059C68684FF480666D
:1051B000064FC1F3090106EA545641EA02413E4353
:1051C0001943B043214308436860F0BDFF63FF0308
:1051D0002DE9F0411D4617460E460446DDF81880BD
:1051E00008E0681C06D0FEF703F9A0EB0800A8420F
:1051F0000BD855B12068806936EA000012D0002033
:10520000B842EED00020BDE8F08154F8440F40F0E1
:10521000200044F80409202060700020A070207055
:105220000120F0E70120EBE72DE9F0410026904650
:105230000F460446202525E0424639462046FFF722
:105240006FFF78BB20688069C043800613D4206854
:105250008169C943490701D4218DC1B9C56154F899
:10526000440B4168104A1140416044F82069657759
:10527000A677267716E0FEF7BBF8A0EB0800B84249
:1052800008D83FB120688069C0434007D4D40020CB
:10529000BDE8F08154F8440F40F0200044F80409C0
:1052A000657026700120F3E700E800FE70B5164631
:1052B0000D4604460DE0324629462046FFF730FFF2
:1052C00008B1012070BDFEF793F8801BA84207D8F3
:1052D00035B120688069C0438006ECD4002070BDE1
:1052E00054F8440F40F0200044F804092020607076
:1052F0000020A0702070E4E770B516460D46044605
:105300000FE0324629462046FFF70AFF08B1012088
:1053100070BD681C05D0FEF76BF8801BA84207D84B
:1053200035B120688069C0438007EAD4002070BD91
:1053300054F8440F40F0200044F804092020607025
:105340000020A0702070E2E710B52DED0A0B2DEDC6
:10535000108B88B0F0EE418AB0EE609AF0EE409A81
:105360009FEDD60A8DED000A8DED010A8DED020A42
:105370009FEDD38AD34C94ED000AD4ED000A20EEC1
:10538000201A8DED071AD4ED000A94ED010A20EEE3
:1053900080DA94ED000AD4ED020A60EE20CA94EDA2
:1053A000000AD4ED030A20EE205A94ED010AD4ED50
:1053B000010A60EE20FA94ED010AD4ED020A60EED3
:1053C000204A94ED010AD4ED030A20EE20CA94EDA0
:1053D000020AD4ED020A60EE20BA94ED020AD4ED7E
:1053E000030A20EE20BA94ED030AD4ED030A60EE1E
:1053F00020AA21EEA10A02EE020A02EEA20A06F09B
:1054000063F961EE805ACDED1B5A62EE005ACDED84
:105410001C5A62EE805A23EE030ACDED1D5A03EEAC
:10542000A30A04EE040A06F04FF9F6EE002A63EE32
:1054300000EA72EEEB0A23EE80EAB0EE00AA64EE18
:1054400000DA2EEE8A0A70EEEA0A2EEE0A2A34EE0E
:10545000C54ACDED060A20EE201A6DEE8A1A7CEEC2
:105460002C0A72EEEF2A02EE041A3CEE6CFA8DED75
:10547000054A32EEEA3A72EEEB3A01EEA01A74EE09
:10548000850ACDED043A60EE200A20EE0F0A42EEC6
:10549000030A3BEE4D3A41EE830A3BEE0D3A02EE33
:1054A000030A01EEA30A8DED030A21EE010A00EEC4
:1054B000A00A10EE100AFBF717FC41EC100B04F0E9
:1054C000FFFE51EC100BFBF722FC9DED071A00EEDE
:1054D000900A9DED030A31EE6F1A20EE8A2A9DEDA7
:1054E000054A7DEE0B3A31EE6B1A20EE0A0ADDED2D
:1054F000060A63EE8A2A31EE2A3A22EE041A62EE96
:10550000200ADDED1C5A6FEE0A1A00EE231A7CEE1B
:105510008C3A40EE0F0A22EE232ADDED043A00EE2B
:10552000232A25EE830ADDED1D5A05EEE20A6EEE12
:10553000023A4DEEC13A2EEE811A0EEE601A30EEAE
:10554000230A65EEA13ADDED1B5AB5EEC00A45EE21
:10555000C33A2DEEA03A65EEA22ADDED1C5A0EEEFE
:10556000C23A45EEE12A33EE832A72EE810AF1EE69
:1055700010FA23D0B5EEC02AF1EE10FA1ED0F5EEE7
:10558000C00AF1EE10FA19D0B1EE023A9DED001A00
:10559000DDED011ADDED022A00EE081A42EE081ACE
:1055A00040EE882A40EE039A02EE039A40EE838A88
:1055B00079EE819A39EE219A78EEA28A94ED010A69
:1055C000D4ED020A29EEC00A00EEC90AD4ED030A9E
:1055D00000EEE80AD4ED000A40EE080AC4ED000A25
:1055E00094ED000AD4ED020A20EE290A00EEA80A82
:1055F000D4ED030A00EEC90AD4ED010A40EE080A10
:10560000C4ED010A94ED000AD4ED010A20EE090A66
:1056100000EEE80AD4ED030A00EEA90AD4ED020A6E
:1056200040EE080AC4ED020A94ED000AD4ED010A26
:1056300020EE280A00EE890AD4ED020A00EEE90AFB
:10564000D4ED030A40EE080AC4ED030A94ED000A03
:10565000D4ED000A94ED011A20EE200AD4ED010ADF
:1056600000EE810AD4ED020A94ED021A00EE810ADE
:10567000D4ED030A94ED031A00EE810A06F024F833
:10568000D4ED000A60EE800AC4ED000AD4ED010AF0
:1056900060EE800AC4ED010AD4ED020A60EE800AD1
:1056A000C4ED020AD4ED030A20EE800A84ED030A59
:1056B00008B000F009B80AB010BD000000000000FA
:1056C000A69BC43C7C030020BDEC088BBDEC08CB42
:1056D000FFF7F1BF00B587B0684601F095F802A862
:1056E00001F0BEF804A801F021F9BDF9080000EEB0
:1056F000100ABDF90A00F8EEC00A9FED210AC0EEBB
:10570000804A00EE900ABDF90C00B8EEE01AC1EE36
:10571000000A01EE100ABDF90000F8EEC11A81EE90
:10572000801A00EE100ABDF90200F8EEC01A00EE71
:10573000100ABDF90400B8EEC02A00EE100ABDF947
:105740001000F8EEC02A00EE100ABDF91200B8EE03
:10575000C03A00EE100ABDF91400F8EEC03A00EEAF
:10576000100AB8EEC04A9FED070A21EE001A60EE5B
:10577000800A24EE800AFFF7E7FD07B000BD0000B5
:1057800033330342295C8F3C70B505462DED088B01
:10579000FFF7A0FF534CF8EE008AB0EE008A94EDBC
:1057A000010AD4ED030A94ED021A20EE280A20EE35
:1057B000200AD4ED000A60EE880A00EE810A10EE9D
:1057C000100AFBF791FA41EC100B03F011FB9FED6F
:1057D000469B51EC100B53EC192BFBF74BF9FBF7E5
:1057E00096FAA86094ED010AD4ED010A94ED021A2C
:1057F00020EE280AB7EE00BA20EE200AD4ED020A05
:1058000060EE880A00EEC10A30EE0B0A10EE100AB4
:10581000FBF76AFA94ED020AD4ED030A94ED011A3B
:1058200020EE080A41EC1A0B20EE200AD4ED000A03
:1058300060EE880A00EE810A10EE100AFBF754FAB7
:1058400041EC100BB0EE4A1AF0EE6A1A03F000FEBB
:1058500053EC192B51EC100BFBF70CF9FBF757FA33
:10586000686094ED020AD4ED020A94ED031A20EE6A
:10587000080A20EE200AD4ED030A60EE880A00EE42
:10588000810A30EE4B0A10EE100AFBF72DFA94ED68
:10589000010AD4ED020A94ED031A20EE280A41EC25
:1058A0001A0B20EE200AD4ED000A60EE880A00EE02
:1058B000C10A10EE100AFBF717FA41EC100BB0EE1C
:1058C0004A1AF0EE6A1A03F0C3FD53EC192B51EC9F
:1058D000100BFBF7CFF8FBF71AFAE860BDEC088B6A
:1058E00070BD00007C0300206666666666A64C40BC
:1058F00010B501F019F90748B7EE000A80ED000A6B
:105900009FED050A80ED010A80ED020A80ED030A91
:1059100010BD00007C0300200000000001490020B1
:1059200008707047B103002070B50546FBF7DAFE3A
:1059300008F0D6F972B64FF0E020016921F00101BC
:105940000161224B4FF4801098640022DA641A65DA
:10595000DA651A669A601E48016821F0010101604B
:105960001046531E810001F1E021C1F88031C1F8D9
:105970008032401C0328F5DB15484FF000648C385A
:10598000046082F3118882F313882068114908406B
:10599000B0F1005F18D160680F494860206880F35B
:1059A0000888206880F30988002080F31488BFF3FA
:1059B0006F8F72B629460948057009A003F0DAF91D
:1059C0006068BDE87040004770BD000000100240F4
:1059D00094ED00E00000FE2F0000002080FF00207A
:1059E0005F426F6F747570506172616D657465723E
:1059F0005F3A25640D0A000010B5034600224FF0FF
:105A00000041194201D042F0010202F00304012CCE
:105A100001D1401CC0B25206120E4908F1D110BD8E
:105A2000C04301D000207047012070470021C20709
:105A300004D1491C4008C9B22029F8D300210A46E4
:105A4000C30706D0491C521C4008D2B2C9B2202A52
:105A5000F6D30A2901D9012070470020704710F0C1
:105A6000FF0F01D000207047012070472DE9F04161
:105A7000054617460C461E460A2803D90A3D0A3F2A
:105A8000ADB2BFB20A2C05D9A1F10A04A3F10A06EE
:105A9000A4B2B6B22A2000F0B5FD280A00F0C0FD7D
:105AA000E8B200F0BDFD380A00F0BAFDF8B200F02F
:105AB000B7FD2B2000F0A6FD200A00F0B1FDE0B2FA
:105AC00000F0AEFD300A00F0ABFDF0B200F0A8FD32
:105AD000BDE8F0412C2000F095BD00002DE9F04715
