:020000040800F2
:10000000001C0020A101000857220008B1100008C0
:1000100055220008C3020008BD29000800000000A6
:100020000000000000000000000000005926000849
:10003000F502000800000000E1220008E3270008A4
:10004000BB010008BB010008BB010008BB010008A0
:10005000BB010008BB010008BB010008BB01000890
:10006000BB010008BB010008BB010008BB01000880
:10007000BB010008BB010008BB010008BB01000870
:10008000BB010008BB010008BB010008BB01000860
:10009000BB010008BB010008BB010008BB01000850
:1000A000BB010008BB010008BB010008BB01000840
:1000B000BB0100080000000000000000BB010008B8
:1000C000BB010008BB010008BB010008BB01000820
:1000D0007524000845290008492900084D29000811
:1000E000BB010008BB010008000000000000000088
:1000F0000000000000000000000000000000000000
:1001000000000000BB01000800000000BB01000867
:100110000000000000000000BB010008BB01000857
:10012000BB010008BB010008BB010008BB010008BF
:10013000BB010008000000000000000000000000FB
:10014000BB010008BB010008BB0100080000000063
:10015000BB010008BB010008BB010008BB0100088F
:10016000BB010008BB010008BB0100080000000043
:10017000BB010008BB0100080000000000000000F7
:10018000BB010008BB010008BB010008DFF80CD070
:1001900000F066F80048004749320008001C0020C3
:1001A0000648804706480047FEE7FEE7FEE7FEE711
:1001B000FEE7FEE7FEE7FEE7FEE7FEE701290008AF
:1001C0008D010008D2B201E000F8012B491EFBD2DC
:1001D00070470022F6E710B513460A460446194652
:1001E000FFF7F0FF204610BD421C10F8011B00294C
:1001F000FBD1801A70472DE9F05F0546002092463A
:100200009B4688460646814640241BE028464146D8
:100210004746224600F045F853465A46C01A9141D7
:1002200010D311461846224600F02CF82D1A67EB21
:1002300001084F4622460120002100F023F817EB69
:1002400000094E41201EA4F10104DFDC484631467E
:100250002A46434600F000B830BCBDE8C09F00000D
:10026000064C074D06E0E06840F0010394E8070003
:1002700098471034AC42F6D3FFF78CFF08440008CF
:1002800028440008202A04DB203A00FA02F100206A
:1002900070479140C2F1200320FA03F319439040C4
:1002A0007047202A04DB203A21FA02F0002170472F
:1002B00021FA02F3D040C2F12002914008431946CE
:1002C0007047FEE710B5044601F0C8FD04484178C8
:1002D000012901D0002010BD00782070012010BD40
:1002E000E207002002490A7882430A707047000042
:1002F0004800002070477047124A117F12480129B8
:1003000001D003290BD1036843F400630360036841
:1003100023F400630360036843F40073036002295D
:1003200001D003290BD1016841F4805101600168BB
:1003300021F480510160016841F480610160002076
:10034000107770471C00002000200240C1070548BC
:1003500003D0416941F004014161416941F48031B8
:10036000416170470020024006494A6960F3CA02B1
:100370004A61486940F002004861486940F48030B1
:100380004861704700200240044910B54C6944F0B0
:1003900001044C610260436010BD00000020024077
:1003A000074B10B55C69402244F480245C6172B64E
:1003B00008C908C0521E12F0FF02F9D162B610BD82
:1003C0000020024070B5054600F08CFA0646174C36
:1003D00008E0681C06D000F085FA801BA84201D313
:1003E000032070BD2069C003F3D421691048014087
:1003F000A06900F00040084311D00E494A6802434A
:100400004A60810F04D0A16900F040421143A1610C
:10041000810002D020F040402061012070BD2069A1
:10042000C00701D001202061002070BD00200240E3
:10043000FAC302001C00002030B585B0154B002126
:100440004FF4004204911A610122CDE900121249D1
:100450004FF6FF7415050968A14201D12B4601E052
:100460000B059B0A03F1006383420DD9A0F10060E4
:10047000C00ACDE9020204A9684600F07FF800280E
:1004800000D0012005B030BDA14201D009058D0A80
:10049000401BEBE700200240E075FF1F2DE9F04113
:1004A000064612480D464FF40041174600240161EC
:1004B00017E030192919D0E90023002000F0DCF8FA
:1004C00010B10120BDE8F08130192A19D0E90010DF
:1004D000D2E9003259405040014301D00220F1E7F7
:1004E0000834BC42E5D30020ECE7000000200240C5
:1004F00002000A494FF0000005D0012A07D0022A65
:1005000004D1898804E0098802E001207047498805
:10051000491C0904090CF8D07047000000000020B5
:1005200001480078704700004800002010B590F89E
:1005300025100024022903D00421C16301241AE0FC
:1005400001680A6822F00E020A6001680A6822F057
:1005500001020A6090F84410036C01F01C020121B2
:1005600001FA02F25A6080F82510002180F8241068
:10057000816B01B18847204610BD00002DE9F05F76
:10058000054634488946017801290CD00127804668
:1005900007704CF2503B5846FFF714FF06004FF02F
:1005A000000A03D052E0022000F058B851464046FD
:1005B000C8F804A0284C226892050ED5216821F4C1
:1005C000007121602168490505D5216821F4806109
:1005D0002160032109E0077708E02268520504D56D
:1005E000216821F4806121600221017728680128B7
:1005F00007D04FF0FF31C9F8001040F2FA7BAF6826
:100600001DE06868FFF7A2FE5846FFF7DBFE0646CE
:10061000606920F00400606116E038466968FFF701
:10062000A3FE4CF25030FFF7CDFE0600606920EAD1
:100630000B00606102D0C9F8007005E07F1CD5E9AD
:1006400002010844B842E8D8FFF756FE88F800A037
:100650003046A9E71C0000200020024030BCBDE865
:10066000C09F00000348416941F000414161002002
:1006700070470000002002402DE9FF5F254C064630
:10068000904620789A4601280BD0012020704CF229
:10069000503B5846FFF796FE07004FF0000904D084
:1006A0002AE0022004B000F039B84846C4F80490AB
:1006B000194D2968490504D5286820F48060286010
:1006C0000220207726B1012E09D0022E07D00CE09F
:1006D000424653460198FFF757FE012612E0414675
:1006E0000198FFF75DFE022E0AD05846FFF76AFE1A
:1006F0004FEA0007FFF700FE84F800903846D1E784
:100700004FF480265846FFF75DFE07466869B04300
:100710006861EFE71C0000200020024030BCBDE80B
:10072000C09F0000064900204A69002A07DA054AEE
:100730008A60054A8A604969002900DA0120704709
:100740000020024023016745AB89EFCD2DE9F84F2A
:10075000DFF864B100234FF0010C4FF0030A4FF0B3
:100760000F090BF1040EA0E00CFA03F6324072D030
:100770004C68022C01D0122C0ED1DC0800EB84084E
:10078000D8F820405D07EF0E09FA07F5AC430D6974
:10079000BD402543C8F8205007685D0091F80480EB
:1007A0000AFA05F408F00308A74308FA05F848EA2E
:1007B0000708C0F800804F68012F05D0022F03D032
:1007C000112F01D0122F11D18768D1F80C80A743C7
:1007D00008FA05F848EA0708C0F808804768B743F0
:1007E0000E79C6F300169E403E434660C668A64397
:1007F0008C68AC403443C4604C68E40054D52F4C42
:10080000256E45F001052566246E23F0030504F0EE
:10081000010400942A4C2E19B4689D072F0F09FA81
:1008200007F5AC43B0F1904F04D0264DA84203D158
:10083000012512E0002510E0234DA84201D1022538
:100840000BE0224DA84201D1032506E0204DA8422D
:1008500002D1042501E027E00725BD402543B5600E
:10086000DBF800405D464E689443F60300D5144320
:100870002C60DEF8004075464E689443B60300D500
:1008800014432C600C4D08352C684E689443F602D6
:1008900000D514432C60084D0C352C684E689443E9
:1008A000B60200D514432C605B1C0A6832FA03F4CC
:1008B0007FF45AAF00F00EB800040140001002406F
:1008C000000001400004004800080048000C0048F7
:1008D0000010004818BCBDE8E08F0AB18161704784
:1008E00081627047014800687047000018000020CE
:1008F00002480168491C0160704700001800002090
:1009000010B50024032000F065F8002000F008F87E
:1009100008B1012401E000F01BF8204610BD0000E2
:1009200070B5054609484FF47A7100240068B0FBA1
:10093000F1F000F0A9FB08B1012404E000222946EF
:10094000501E00F027F8204670BD00003C0000203B
:10095000094808B5016E41F001010166016E01F020
:1009600001010091816D41F080518165806D00F041
:100970008050009008BD00000010024000F01F02EF
:10098000012191404009800000F1E020C0F80011F1
:1009900070470000F0B40E4B1B680C46C3F30223F3
:1009A000C3F10705042D00D90425191D072901D21B
:1009B000002300E0DB1E012606FA05F1491E214056
:1009C00099409E40761E16403143F0BC01F078BC41
:1009D0000CED00E0064900F0070208684FF6FF033F
:1009E000184040EA0220034A1043086070470000A4
:1009F0000CED00E00000FA050549CB6800F01F028D
:100A0000934343EA5010C860886810438860704779
:100A1000007000400648016821F00701C91C016010
:100A20000448016841F00401016030BF70470000D4
:100A30000070004010ED00E07047000038B501681C
:100A400004464A688868C043430606D5C30704D1F4
:100A5000D3435B0601D4E16C05E0830708D4D3439C
:100A60001B0605D4216D01B02046BDE83040084783
:100A7000830603D5430601D5C30551D4D3439B0652
:100A80004ED443060AD494F85D30032B49D0236E2C
:100A900043F004032366CB688B680093830609D474
:100AA000236E43F0010323668B6800930B6823F0E9
:100AB00040030B60C00506D4206E40F0080020669D
:100AC000206880680090206E002829D02068416846
:100AD00021F0E0014160012084F85D00900701D41D
:100AE000D00722D02068416821F003014160114DF8
:100AF000A06D40B18563A06DFFF718FD18B1206EA1
:100B000040F040002066606D002809D08563606D6C
:100B1000FFF70CFD002803D0206E40F04000206657
:100B200038BDC8688868009038BD2046FFF784FF4C
:100B300038BD0000D52400082DE9F041040005D09F
:100B40000025A56294F85D0018B107E00120BDE81A
:100B5000F08184F85C50204600F044F8022384F8C9
:100B60005D302068016821F040010160E0684FF4C9
:100B7000E066B04201D9002101E04FF48051B0F5A8
:100B8000706F02D0B04200D0A562276B012227B956
:100B9000B04201D9236300E02263D4E90103184382
:100BA000D4E9043633431843238B03F4007318430A
:100BB000E3691843236A1843A36A1843236818603B
:100BC000636B606AA66918430427E36807EA164660
:100BD00033431843084321684860256684F85D2044
:100BE0000020B4E770B586B0044614216846FFF7CC
:100BF000F0FA264E25680021254802220323052409
:100C0000B5421CD1056E45F480550566056E05F4A8
:100C100080550595C56C45F00105C564C06C02ADF5
:100C200000F00100059085E81A00A020CDE900023F
:100C300069464FF09040FFF789FD06B070BD154E34
:100C4000B542FAD1856D45F480458565856D05F41D
:100C500080450595C56C45F00205C564C06C02ADC4
:100C600000F00200059085E81A00B000CDE900020E
:100C700069460948FFF76AFD002211462420FFF764
:100C800089FE2420FFF77AFED7E7000000300140FC
:100C90000010024000380040000400482DE9F84FE1
:100CA000044690F85C0000271D4616468946012838
:100CB0000DD04FF0010B84F85CB0FFF713FE8046B7
:100CC00094F85D00BA46012804D002279FE0022074
:100CD00000F0A3B8B9F1000F6FD0002E6DD0032043
:100CE00084F85D00C4F860A0C4F83890A687E68751
:100CF000C4F840A0A4F844A0A4F846A0C4F850A0AA
:100D0000C4F84CA0A068B0F5004F04D12068016879
:100D100041F48041016020680168490603D40168FC
:100D200041F040010160E068B0F5E06F606823D9F0
:100D300008B1012E1CD1A06B21680088C86006E0B4
:100D400020688168890709D5A16B0988C160A06BFB
:100D5000801CA063E08F401EE08709E0FFF7C2FD22
:100D6000A0EB0800A84202D3681C01D046E0ADB356
:100D7000E08F0028E4D136E008B1012E30D1E08FB9
:100D80000128A06B03D921680088C8600FE02168A2
:100D90000078087314E0E08722E020688168890702
:100DA00014D5E18F0129A16B08D90988C160A06B16
:100DB000801CA063E08F801EEDE727E009780173B7
:100DC000A06B401CA063E08F401EE4E7FFF78AFDA4
:100DD000A0EB0800A84202D3681C01D00EE06DB160
:100DE000E08F0028D9D142462946204601F07BFBFE
:100DF00008B120202066A06810B105E0032706E0B6
:100E00002068C16880680090206E00B1012784F8D6
:100E10005DB084F85CA038465AE718BCBDE8E08FA6
:100E20002DE9F05F044690F85C0000270A9E1D46FD
:100E300092468B464FF0010901280ED0012084F81C
:100E40005C00FFF74FFD804694F85D006168012863
:100E50000CD0B1F5827F07D102E0022000F011B979
:100E6000A16809B9042801D0022700E1BBF1000FF5
:100E700024D0BAF1000F21D005B394F85D00042806
:100E800002D0052084F85D0000202066C4F840A050
:100E9000A4F84650A4F84450C4F838B0E587A587B4
:100EA000E0642065E0684FF4E061884201D8012DDC
:100EB00006D92068426822F4805205E00127D6E076
:100EC0002068426842F480524260206802685206FC
:100ED00003D4026842F040020260E0688842606821
:100EE00045D908B1012D3AD1A06B21680088C860AE
:100EF000A06B801CA063E08F401EE0872FE020687D
:100F0000816889070FD5E18F69B1B9F1010F0AD165
:100F1000A16B0988C160A06B801CA063E08F401E9C
:100F2000E0874FF0000920688168C9070FD0B4F846
:100F3000461061B1C068216C0880206C801C206460
:100F4000B4F84600401EA4F846004FF00109FFF730
:100F5000C9FCA0EB0800B04201D3701C75D1E08F32
:100F60000028CCD1B4F846000028C8D176E008B1FA
:100F7000012D6CD1E08F0128A06B08D92168008871
:100F8000C860A06B801CA063E08F801E07E0216812
:100F900000780873A06B401CA063E08F401EE087C0
:100FA00055E02068816889071AD5E18FC1B1B9F190
:100FB000010F15D1E18F0129A16B07D90988C16003
:100FC000A06B801CA063E08F801E06E0097801738F
:100FD000A06B401CA063E08F401EE0874FF000092B
:100FE00020688168C90728D0B4F8461029B3B4F83E
:100FF0004610012914D9C068216C0880206C801C1F
:101000002064B4F84600801EA4F84600B4F84600F8
:10101000012810D82068416841F4805141600AE0FD
:10102000007B216C0870206C401C2064B4F84600E2
:10103000401EA4F846004FF00109FFF753FCA0EB57
:101040000800B04202D3701C01D018E0BEB1E08F9E
:101050000028A6D1B4F846000028A2D14246314665
:10106000204601F040FA10B101272020206601201F
:1010700084F85D00002084F85C003846EEE6032723
:10108000F5E730BCBDE8C09F10B5401EB0F1807FD1
:1010900001D3012010BD4FF0E02460610F216017E3
:1010A00001F00EF90020A06107202061002010BD92
:1010B000FEE7000072B64FF0E020016921F0010167
:1010C00001611D494FF4801088640020C8640865E0
:1010D000C8650866886019490A6822F001020A603A
:1010E0000146431E8A0002F1E022C2F88031C2F8B4
:1010F0008032491C0329F5DB104A11498C3A1160F2
:1011000080F3118880F3138808680E4A1040B0F10C
:10111000005F10D148680C4A9060086880F3088826
:10112000086880F30988002080F31488BFF36F8F6C
:1011300072B64868004770470010024094ED00E026
:10114000000001080000FE2F480000202DE9F041BA
:10115000054617460C461E460A2803D90A3D0A3F93
:10116000ADB2BFB20A2C05D9A1F10A04A3F10A0657
:10117000A4B2B6B22A2000F02FFC280A00F038FCF6
:10118000E8B200F035FC380A00F032FCF8B200F0AA
:101190002FFC2B2000F020FC200A00F029FCE0B2FC
:1011A00000F026FC300A00F023FCF0B200F020FC36
:1011B000BDE8F0412C2000F00FBC08B500210090E4
:1011C0007823B422084600F001F808BD2DE9F04765
:1011D000141A5F1A641C7F1C7C43002564004FF4C2
:1011E0009068089E444502D9A4F590654446FFF7EF
:1011F000ADFF370ADFF84890DFF848A0F6B20020CC
:10120000494606E001F8107001EB4002401C5670A0
:1012100080B2B0EB540FF5D30120CAF81800A1B288
:10122000074800F08FFE002D07D0454502D9A5F5EF
:101230009065E4E72C460025E1E7BDE8F087000073
:10124000620200200004004870B54FF09044102066
:10125000A0620501A561142000F0C0FDA562282050
:1012600000F0BCFDA5610A2000F0B8FDFE2000F0F2
:10127000B3FB042000F0BCFB002000F0ADFBDC2041
:1012800000F0B6FB012000F0A7FB002000F0B0FB4F
:10129000022000F0A1FB022000F0AAFB032000F0D6
:1012A0009BFB002000F0A4FB042000F095FB002035
:1012B00000F09EFB052000F08FFB032000F098FB60
:1012C000062000F089FB162000F092FB072000F0BA
:1012D00083FB132000F08CFB082000F07DFB08202E
:1012E00000F086FB092000F077FBDC2000F080FB9B
:1012F0000A2000F071FB002000F07AFB0B2000F0C8
:101300006BFB022000F074FB0C2000F065FB00205A
:1013100000F06EFB0D2000F05FFB002000F068FB8A
:101320000E2000F059FB022000F062FB0F2000F0BD
:1013300053FB162000F05CFB102000F04DFB182042
:1013400000F056FB112000F047FB082000F050FB96
:10135000122000F041FBC22000F04AFB132000F0F5
:101360003BFB002000F044FB142000F035FB342050
:1013700000F03EFB152000F02FFB052000F038FBAD
:10138000162000F029FB002000F032FB172000F0AF
:1013900023FB032000F02CFB182000F01DFB152080
:1013A00000F026FB192000F017FB412000F020FB85
:1013B0001A2000F011FB002000F01AFB1B2000F0A7
:1013C0000BFBDC2000F014FB1C2000F005FB0020D0
:1013D00000F00EFB1D2000F0FFFA042000F008FBD7
:1013E0001E2000F0F9FA002000F002FB1F2000F0A0
:1013F000F3FA002000F0FCFA202000F0EDFA0320C0
:1014000000F0F6FA212000F0E7FA162000F0F0FADA
:10141000222000F0E1FA182000F0EAFA232000F080
:10142000DBFA082000F0E4FA242000F0D5FADC20F2
:1014300000F0DEFA252000F0CFFA002000F0D8FA04
:10144000262000F0C9FA042000F0D2FA272000F08C
:10145000C3FA002000F0CCFA282000F0BDFA0020EA
:1014600000F0C6FA292000F0B7FA012000F0C0FA17
:101470002A2000F0B1FA162000F0BAFA2B2000F072
:10148000ABFA182000F0B4FA2D2000F0A5FA0820DD
:1014900000F0AEFA4C2000F09FFA992000F0A8FA74
:1014A0004D2000F099FA002000F0A2FA4E2000F042
:1014B00093FA002000F09CFA4F2000F08DFA0020F3
:1014C00000F096FA502000F087FA012000F090FA20
:1014D000512000F081FA0A2000F08AFA522000F030
:1014E0007BFA002000F084FA5A2000F075FAE4201C
:1014F00000F07EFA5E2000F06FFA772000F078FAB4
:101500005F2000F069FA772000F072FA602000F0A6
:1015100063FA342000F06CFA612000F05DFA0220DA
:1015200000F066FA622000F057FA812000F060FABD
:10153000FE2000F051FA072000F05AFA072000F0D0
:101540004BFA4F2000F054FAFE2000F045FA01203B
:1015500000F04EFA042000F03FFA802000F048FA34
:10156000052000F039FA652000F042FA062000F06C
:1015700033FA1E2000F03CFA0E2000F02DFA8B20EA
:1015800000F036FA0F2000F027FA8B2000F030FA36
:10159000102000F021FA112000F02AFA112000F0AA
:1015A0001BFAA22000F024FA132000F015FA002004
:1015B00000F01EFA142000F00FFA812000F018FA53
:1015C000152000F009FA822000F012FA182000F02D
:1015D00003FA452000F00CFA192000F0FDF9342040
:1015E00000F006FA1A2000F0F7F9102000F000FAD7
:1015F0001C2000F0F1F9572000F0FAF91D2000F04E
:10160000EBF9022000F0F4F9212000F0E5F9F820D0
:1016100000F0EEF9222000F0DFF9902000F0E8F968
:10162000232000F0D9F9002000F0E2F9252000F095
:10163000D3F90A2000F0DCF9262000F0CDF946208D
:1016400000F0D6F92A2000F0C7F9472000F0D0F9C1
:101650002B2000F0C1F9FF2000F0CAF92D2000F086
:10166000BBF9FF2000F0C4F92F2000F0B5F9AE203F
:1016700000F0BEF9372000F0AFF90C2000F0B8F907
:101680003A2000F0A9F9002000F0B2F93B2000F068
:10169000A3F9202000F0ACF93D2000F09DF90B20CB
:1016A00000F0A6F93F2000F097F9382000F0A0F9EB
:1016B000402000F091F90B2000F09AF9412000F051
:1016C0008BF90B2000F094F9422000F085F91120ED
:1016D00000F08EF9432000F07FF9442000F088F9F3
:1016E000442000F079F9222000F082F9452000F032
:1016F00073F9552000F07CF9462000F06DF9332095
:1017000000F076F9472000F067F9662000F070F9E4
:101710004C2000F061F9112000F06AF94D2000F032
:101720005BF9442000F064F94E2000F055F92220C6
:1017300000F05EF94F2000F04FF9552000F058F905
:10174000502000F049F9332000F052F9512000F008
:1017500043F9662000F04CF9562000F03DF91120C5
:1017600000F046F9582000F037F9442000F040F925
:10177000592000F031F9222000F03AF95A2000F007
:101780002BF9552000F034F95B2000F025F93320C7
:1017900000F02EF95C2000F01FF9662000F028F917
:1017A000612000F019F9112000F022F9622000F008
:1017B00013F9442000F01CF9632000F00DF92220F9
:1017C00000F016F9642000F007F9552000F010F938
:1017D000652000F001F9332000F00AF9662000F0DE
:1017E000FBF8662000F004F96D2000F0F5F8902079
:1017F00000F0FEF86E2000F0EFF8402000F0F8F85E
:10180000702000F0E9F8A52000F0F2F8722000F056
:10181000E3F8042000F0ECF8732000F0DDF8152068
:1018200000F0E6F8FE2000F0D7F80A2000F0E0F81B
:10183000292000F0D1F8902000F0DAF8FE2000F026
:10184000CBF8052000F0D4F8052000F0C5F81F20E3
:1018500000F0CEF8FE2000F0BFF8002000F0C8F83D
:10186000512000F0B9F8FF2000F0C2F8352000F058
:10187000B3F8002000F0BCF83A2000F0ADF8552095
:1018800000F0B6F82A2000F0A7F8002000F0B0F829
:10189000002000F0ADF8002000F0AAF8B32000F01E
:1018A000A7F82B2000F098F8002000F0A1F8002005
:1018B00000F09EF8002000F09BF8772000F098F8E8
:1018C000532000F089F8282000F092F8112000F051
:1018D00083F8002000F08CF8142000F07FFA292013
:1018E00000F07AF8002000F083F8BDE870402C206A
:1018F00000F072B80A4601460A230148FFF7CEB944
:101900006C0000202DE9F047203AD6B21C46B422E4
:10191000A2EB5402824239D3C4F178028A4235DB09
:101920000A19521E93B200EB5402521E92B2FFF7F4
:101930000DFC102C01D0202C28D1600700D00120F4
:1019400000EBD400610810FB01F000F0FF08114823
:101950000025DFF83C9000EB061A15E0102C15D19D
:101960001AF805700026380602D5B9F8000001E023
:10197000B9F8020000F048F87806761C070EF6B2B7
:10198000082EF0D36D1CEDB24545E7D3BDE8F087D6
:10199000400000203036000870B514460219049E3D
:1019A0001D46B42A15D84B19782B12D85B1E521E2F
:1019B0009BB292B2FFF7CAFB0649012088616C43D3
:1019C0004FF6FF7000EA44013046BDE87040FFF773
:1019D00091BF70BD0004004801B504490120886230
:1019E0000146684600F0AEFA08BD00000004004859
:1019F00001B50449012088610146684600F0A2FA59
:101A000008BD00000004004808B500210091010A4B
:101A10008DF8001004498DF8010001208861022131
:101A20006846FFF767FF08BD00040048044908B591
:101A3000CA6C0243CA64C96C0140009108BD000031
:101A400000100240044908B5CA6C0243CA64C96C5C
:101A50000140009108BD000000100240044908B593
:101A60008A6D02438A65896D0140009108BD0000BE
:101A700000100240F0B50A68032492FAA2F2B2FA0A
:101A800082F30F257BE0324601269E40324075D01E
:101A9000D1F804E0066892FAA2F7B7FA87F74FEA9E
:101AA000470C04FA0CF7BE4392FAA2F7B7FA87F78D
:101AB0007F000EFA07FE46EA0E0606604E68012E0B
:101AC00001D0022E15D1D1F808E0866892FAA2F76B
:101AD000B7FA87F74FEA470C04FA0CF7BE4392FABD
:101AE000A2F7B7FA87F77F000EFA07FE46EA0E065E
:101AF0008660D1F810C0C66892FAA2F7B7FA87F7E5
:101B00007F0004FA07FE92FAA2F7B7FA87F77F0080
:101B100026EA0E060CFA07FC46EA0C06C6604E687A
:101B2000022E2BD1FF2A14D84E69076A92FAA2FC22
:101B3000BCFA8CFC4FEA8C0C05FA0CFC92FAA2F26F
:101B4000B2FA82F2920027EA0C0796403743076206
:101B500014E04F69466A120A92FAA2FCBCFA8CFCA5
:101B60004FEA8C0C05FA0CFC92FAA2F2B2FA82F25D
:101B7000920026EA0C0697403E4346625B1C0A68C8
:101B80001646DA407FF47FAF4A68012A01D0022A64
:101B900007D1CB6841683246914306FB03F21143FB
:101BA00041600120F0BD0069814301D000207047F1
:101BB000012070474FF47A71B0FBF1F14FF0E02053
:101BC000491E4161002181610521016170470000CA
:101BD00070B500242F49304D4FF40046032804D03F
:101BE0000C281ED0302837D034E0D1F8880000F01F
:101BF000030040F44030B0F5403F0BD06FF440316B
:101C0000401804D001283ED0022823D135E000F04E
:101C1000B1FB1EE000F0AEFB00F082FB00F09CFB8D
:101C200017E0D1F8880000F00C0040F44020B0F537
:101C3000402F08D0001FB0F54020E8D0042822D063
:101C4000082807D119E000F095FB00F069FB00F0CF
:101C500075FB0446204670BDD1F8880000F03000C6
:101C600040F44010B0F5401FEDD01038B0F54010F2
:101C7000CDD0102807D02028ECD100F017F800288C
:101C8000E8D03446E6E700F009F80028E2D02C4618
:101C9000E0E70000001002400024F4000248006861
:101CA000C0F3802070470000001002400248D0F8C6
:101CB0009000C0F3400070470010024002480068E6
:101CC00000F0F00070470000001002400248D0F819
:101CD000940000F4706070470010024002480068F1
:101CE000C0F3C00070470000001002400248C06806
:101CF00000F0700070470000001002400248C06809
:101D000000F003007047000000100240044951F841
:101D1000882F22EA104280B202430A607047000016
:101D20000010024001490860704700003C0000209C
:101D300070B5044600680D46002610F0010F35D13D
:101D4000E9686868AA69084329691143084321685A
:101D50001E4A114008432060A868616821F4405180
:101D6000014361606869A16821F440710143A16089
:101D70001748844201D1032008E01648844201D16B
:101D80000C2003E01448844210D13020FFF720FFDC
:101D900060B1296851B1AA690126B2F5004F07D098
:101DA00000EB5100B0FBF1F080B2E060304670BD56
:101DB000400000EB5100B0FBF1F081B24FF6F07241
:101DC00001EA0200C1F342010843EEE7F369FFEFC5
:101DD00000380140004400400048004008B54FF082
:101DE000E0210A690092421C00D0401C0A69D2031B
:101DF00000D5401E0028F9D108BD00002DE9F041B2
:101E0000DFF8548015460C4606464FF480570022F2
:101E100039464046FEF761FD032000F031FBC4F374
:101E2000074000F02DFBC4F3072000F029FBE0B2CF
:101E300000F026FB002405E0FF2000F021FB3055D8
:101E4000641CA4B2AC42F7D339464046BDE8F04129
:101E50000122FEF742BD00000004004810B50F4803
:101E600018224FF45001FFF7C9FF0C4C0CA0617809
:101E700000F088FFB4F90C30B4F90A20B4F9081066
:101E80000AA000F07FFFB4F90630B4F90420B4F9D9
:101E90000210BDE810400BA000F074BFE207002064
:101EA000557046573A25640D0A00000058623A25DD
:101EB00064202059623A256420205A623A25642021
:101EC000200D0A0058733A2564202059733A25647E
:101ED00020205A733A256420200D0A0010B5802076
:101EE000FFF7A4FD0120FFF7A1FDBDE8104002208F
:101EF000FFF79CBD124810B5104901604FF4827184
:101F0000416000214FF4E062C0E902120222026146
:101F1000012242615202C0E90621016207224162A8
:101F2000C0E90A1201634163FEF706FE002803D0F0
:101F3000BDE81040FEF7DFB910BD000000300140E1
:101F40006C0000200A4601460A230148FEF7A6BE9F
:101F50006C000020124810B5104901604FF48271E6
:101F6000416000214FF4E062C0E9021202220261E6
:101F700001224261520282613822C0E90721072210
:101F80004162C0E90A1201634163FEF7D5FD0028F2
:101F900003D0BDE81040FEF7AEB910BD00380040D8
:101FA000D0000020074808B5C169C1F340110029DD
:101FB00006D0808C8DF800000121684600F004F8FE
:101FC00008BD00000038014010B50022074B08E0B2
:101FD000845C1C85DC69C4F3C014002CFAD0521C4C
:101FE00092B28A42F4D34020186210BD00380140FA
:101FF00010B58EB01C216846FEF7EBF8182107A833
:10200000FEF7E7F82448016E41F480410166006E56
:1020100000F480400D900120FFF714FD4FF4C060E4
:1020200007900220089003200024CDE9090407202E
:10203000CDE90B4007A94FF09040FFF71BFD174873
:1020400000680022C0F30220114600F010F901469A
:10205000252000F025F9252000F0FEF84FF4165059
:10206000CDE900040C200294CDE9034005940694C8
:102070000B4C69462046FFF75BFE606820F49040F9
:102080006060A06820F02A00A060206840F0010095
:1020900020600EB010BD0000001002400CED00E00A
:1020A000003801400848C169C1F34011002909D036
:1020B000808C064AC1B21078642803D2044B1954AC
:1020C000401C1070704700000044004014000020C5
:1020D000FE01002030B58DB01C216846FEF779F86E
:1020E000182107A8FEF775F84FF40030FFF7B6FC8B
:1020F0000120FFF7A7FC0C250220CDE907500320A3
:102100000024CDE909040720CDE90B4007A94FF0D1
:102110009040FFF7AFFC154800680022C0F3022092
:10212000114600F0A4F80146262000F0B9F8262058
:1021300000F092F84FF4E130CDE900040294CDE9CB
:102140000345059406940A4C69462046FFF7F0FDC6
:10215000606820F490406060A06820F02A00A060D1
:10216000206840F0010020600DB030BD0CED00E0B3
:102170000044004030B50A480A4B821C0A4C09E072
:10218000998C0578C9B2C72D04D2A95405786D1C65
:1021900005702185D969C1F340110029F0D130BD06
:1021A00034010020004800400044004010B58EB0CB
:1021B0001C216846FEF70DF8182107A8FEF709F85C
:1021C0004FF48020FFF74AFC0220FFF73BFC4FF45E
:1021D000406007900220089003200024CDE9090404
:1021E0000720CDE90B4007A91748FFF743FC174824
:1021F00000680022C0F30220114600F038F80146C2
:10220000272000F04DF8272000F026F84FF4165054
:10221000CDE900040C200294CDE903400594069416
:102220000B4C69462046FFF783FD606820F4904020
:102230006060A06820F02A00A060206840F00100E3
:1022400020600EB010BD0000000400480CED00E05E
:1022500000480040FEE7704700F01F020121914056
:102260004009800000F1E020C0F80011704730B54F
:1022700000F00703C3F10704042C00D90424181D3F
:10228000072801D2002300E0DB1E012505FA04F037
:10229000401E084098409D406D1E1540284330BDAB
:1022A0000907090E002806DA00F00F0000F1E0200F
:1022B00080F8141D704700F1E02080F8001470478A
:1022C0000907090E002806DA00F00F0000F1E020EF
:1022D00080F8141D704700F1E02080F8001470476A
:1022E0007047000038B50C4C2069C00501D5A01519
:1022F000A0610A48816D41F080518165806D00F0D8
:10230000805000900220FEF777FB1F20A061BDE8FF
:102310003840FEF77FBB0000007000400010024014
:1023200004498968044A01F0F0010909515CC84078
:1023300070470000001002406835000804498968B1
:10234000044A01F4E06102EB11210978C8407047AA
:1023500000100240A835000804498968044A01F4C5
:10236000605102EBD1210978C8407047001002404B
:10237000A8350008184810B58068184C10F00C00FB
:1023800005D004281AD008281AD00C281AD0FFF734
:10239000A5FCD8B1FFF7A2FC50B1FFF78FFC09E014
:1023A000FFF78CFC02E000BFFFF790FC000A02E0A0
:1023B000FFF78CFC000954F8200010BD084810BD40
:1023C000084810BDBDE8104000F00EB8FFF786FCCD
:1023D0000028E9D0E4E7000000100240783500084A
:1023E0000024F40040787D0110B5FFF787FC1D4CF8
:1023F000012803D002282AD003282AD0FFF76EFC38
:1024000028B1FFF76BFC48B3FFF758FC06E0FFF775
:1024100065FC00B3FFF752FC000A00E0000954F825
:10242000204000BFFFF762FC012101EB1010B4FB5C
:10243000F0F20D48C368C068C3F306235A4300F0A6
:10244000C06001EB50604000B2FBF0F010BD074CE3
:10245000E8E7074CE6E7FFF739FCDDE7FFF736FC76
:10246000DCE7000078350008001002400024F4008A
:1024700040787D010148FEF7E1BA0000D00000205D
:1024800001B582B04FF47A700090012301AA02A92D
:102490000248FEF7C5FC9DF804000EBDD0000020E8
:1024A0000B4910B50A68136823F0400313600A68EB
:1024B00013684FF6C774234013600A681368034318
:1024C00013600868016841F04001016010BD000020
:1024D000D000002010B5806A0021A0F84610C18706
:1024E000FEF7AAFA10BDF8B515460E460B46009247
:1024F000044600224FF4C05100F019F888B9334661
:10250000002280212046009500F05CF848B933464F
:1025100000224FF4C0612046009500F008F8002822
:1025200004D0206E40F0200020660320F8BD2DE985
:10253000F0471D4617460E4604464FF4C068DDF8C6
:1025400020900CE0464501D107B9007B681C06D0FD
:10255000FEF7C8F9A0EB0900A84208D23DB12068F7
:1025600081683140B942EDD10020BDE8F087206894
:10257000416821F0E00141606068B0F5827F0BD1D5
:10258000A068B0F5004F02D0B0F5806F04D120688C
:10259000016821F040010160A06AB0F5005F09D137
:1025A0002068016821F4005101602068016841F44D
:1025B00000510160012084F85D00002084F85C0077
:1025C0000320D2E72DE9F0411D4617460E4604468A
:1025D000DDF8188008E0681C06D0FEF783F9A0EB50
:1025E0000800A8420BD255B12068806836EA000086
:1025F00030D00020B842EED10020BDE8F081206844
:10260000416821F0E00141606068B0F5827F0BD144
:10261000A068B0F5004F02D0B0F5806F04D12068FB
:10262000016821F040010160A06AB0F5005F09D1A6
:102630002068016821F4005101602068016841F4BC
:1026400000510160012084F85D00002084F85C00E6
:102650000320D2E70120CDE77047000002480021A7
:102660000170818041707047480000202DE9F05FC3
:1026700083461D4691468A46580700D0012000EB4C
:10268000D50010FB05F0C6B2102D47D1DFF89080C1
:102690000024D8F804700EE017F8141099F8000020
:1026A000814206D107EB4400417899F8010081424C
:1026B00007D0641CA4B23846FDF796FDB4EB500F6A
:1026C000EAD33846FDF790FDB4EB500F26D20AEB63
:1026D0000500401E83B20BEB0500401E82B251463E
:1026E0005846FEF733FD0F48002500EB441913E070
:1026F00019F805700024380602D5B8F8000001E08A
:10270000B8F80200FFF780F97806641C070EE4B2FF
:10271000082CF0D36D1CEDB2B542E9D300F004B83B
:1027200040000020B035000830BCBDE8C09F00006C
:102730002DE9FF5F0D46DDE90E76044680468A46A8
:102740004FF0000946E000BFB9F1000F28D1029810
:10275000039908EB000B0AEB0100A0EB06093A789D
:10276000802A1DD8ABEB5600A04202DAA81985B228
:102770004446A9450DDB0D2A0DD033462946204697
:10278000FFF7C0F804EB560084B217F8010F0028D9
:10279000E5D100F023B8A81985B244467F1CF1E7C3
:1027A00002984FF000094044801B4146A04202DAE3
:1027B000A81985B20C4603990AEB0100801BA842B8
:1027C000E7DB33463A4629462046FFF74FFFA0197C
:1027D00084B2BF1C38780028B6D1DAE73FBCBDE828
:1027E000C09F10B5FEF784F8BDE8104000F080BA35
:1027F0003C4810B5016821F0070141F00401016077
:1028000000683948016821F4C06141F40071016039
:102810003648016841F4807101600168C1F380218C
:102820000029FAD0416821F0F85141F0805141600F
:10283000016841F0010101600168C1F34001002914
:10284000FAD0016841F008010160016821F0F0014F
:1028500041F060010160416821F47F414160C2683C
:1028600042F60101224B1A401143C160C16841F098
:102870008071C160016841F0807101600168C1F33D
:1028800040610029FAD0816841F0030181608168CC
:1028900001F00C010C29FAD1816821F0F00181606E
:1028A000816821F4E0618160816821F46051816078
:1028B000104C2046FFF77EF94FF0E021086940F008
:1028C000040008612046FFF72DFA0B48FFF71EFAB7
:1028D0000A48FFF71BFABDE810404FF44010FFF71D
:1028E00015BA0000002002400070004000100240B5
:1028F0008C80FFF900B4C4040200030008000C003F
:102900000D48016841F4700101600C48016841F014
:1029100001010160002181600268094B1A400260D8
:102920008214C260026822F480220260816102493E
:10293000C00380390860704788ED00E00010024055
:10294000FFFFF6EAFFF72EBBFFF7ACBBFFF712BCA9
:1029500070B5174C4FF6FF754FF40071A08805EA6B
:102960004000A0801348FFF71EF918B9A08840F076
:102970000100A0806088012105EA400060804FF0DE
:102980009040FFF710F918B9608840F001006080AE
:1029900020884FF4005105EA400020800648FFF7E8
:1029A00002F9002803D1208840F00100208070BD8A
:1029B000000000200004004800080048FEE7000076
:1029C0002DE9F04387B00420FFF730F800254FF4DD
:1029D000837001240226049503958DE85100DFF8E9
:1029E0008C9069464846FFF745F84FF480580495A7
:1029F000CDF800800395CDE901464FF09047694638
:102A00003846FFF737F8C9F81860C7F81880CDE9DD
:102A100000456946384602960494FFF72BF8600299
:102A200004948DE8610069464846FFF723F8600387
:102A300004948DE8610069460D48FFF71BF84FF4D8
:102A40008870B861049503958DE851006946384651
:102A5000FFF710F80094CDE90146CDE9035469462B
:102A60004846FFF707F807B0BDE8F08300040048C8
:102A70000008004870B586B00420FEF7D7FF002498
:102A80004FF6FF75CDE9005469464FF0904004942D
:102A9000FEF7F0FFA81ECDE900040C4E6946304653
:102AA0000494FEF7E7FF40F60240CDE9000402205F
:102AB000049069463046FEF7DDFFCDE900546946D3
:102AC00003480494FEF7D6FF06B070BD000400482A
:102AD000000800482DE9FF41FF2703A8FDF7F2FB9E
:102AE00000283FD09DF80C00012802D04FF460066A
:102AF00001E04FF464060422314601A8FFF77EF995
:102B00002B480199814200D9019000244FF480782C
:102B1000029448E0001B4546A8420DD931194246AF
:102B20002448091DFFF76AF92A46224902A800F045
:102B30004FF804F580740DE082B231191D48091D6B
:102B4000FFF75CF901981B49001B82B202A800F054
:102B50003FF8019C0198844206D10022154902A841
:102B600000F036F800F030B864216143B1FBF0F0BA
:102B700085B2AF4217D029460FA000F003F92F46C7
:102B80004AF6AA2028350090A8B268238C22642136
:102B9000FEF71CFB4FF6F0700090AAB26823642188
:102BA0002820FEF713FB01988442B3D3DAE7000034
:102BB000F07F0300E206002070657273656E743A60
:102BC00025640D0A0000000003BCBDE8FC81000084
:102BD0002DE9F05F04460068DFF8B09017468B4699
:102BE000002618B9FDF79EFD89F80060DFF89CA06B
:102BF00000250AF10C0ADFF8988023E01BF8053065
:102C00006D1C1354BD4207D8401C087001E05246A9
:102C1000494608780828F1D399F80000082811D10E
:102C20002068410502D14044FDF706FC21681748A1
:102C3000414408220C30FDF731FC20680830206048
:102C400089F80060AF42E2D8102F1BD299F800003B
:102C50004D46A0B15146C0B2082803D20E54401CC4
:102C60002870F8E72068410502D14044FDF7E4FBF5
:102C700021680648414408220C30FDF70FFC2E70F5
:102C8000FDF7F0FC002000F005B800005400002023
:102C90000000010830BCBDE8C09F000030B587B01F
:102CA00014216846FDF795FA0F48C16C41F0020106
:102CB000C164C06C4FF4805400F002000590012004
:102CC000CDE9004002900220084D03906946284655
:102CD000FDF73CFD012221462846FDF7FEFD0020C0
:102CE000FFF7DEFB07B030BD0010024000040048D3
:102CF00018488188491C89B26422B1FBF2F302FBB7
:102D0000131281801AB9027842F001020270C822BF
:102D1000B1FBF2F302FB13121AB9027842F002027D
:102D200002704FF4FA72B1FBF2F302FB13121AB9FC
:102D3000027842F0040202704FF47A72B1FBF2F3AF
:102D400002FB1311002903D1017841F00801017041
:102D500070470000480000200848016841F0200149
:102D600001600748016841F0200101604FF0E02058
:102D7000016941F002010161704700000038014023
:102D8000004800400FB4054B10B503A9044A02984F
:102D900000F018F810BC5DF814FB00002D3200089C
:102DA0006800002002E008C8121F08C1002AFAD1FA
:102DB00070477047002001E001C1121F002AFBD1BB
:102DC000704700002DE9FF4F8DB00F4605460026E5
:102DD00006E025280BD0DDE90F1290476D1C761C0C
:102DE00028780028F5D111B0304600F0F3B900245E
:102DF000A246A1460122EC4900E0044315F8013F38
:102E0000203B02FA03F00842F7D128782A2810D094
:102E10006FF02F022878A0F13001092914D80AEBAD
:102E20008A0102EB410144F0020400EB010A6D1C2F
:102E3000F0E701CF5FEA000A03D544F40054CAF179
:102E4000000A44F002046D1C28782E2817D115F8CA
:102E5000010F44F004042A280ED06FF02F022878C6
:102E6000A0F1300109290AD809EB890102EB4101DF
:102E700000EB01096D1CF2E757F8049B6D1C2878E4
:102E80006C280FD006DC4C2817D068280DD06A2893
:102E900014D104E0742810D07A280FD10DE044F446
:102EA00000140AE044F4801401E044F4401469780A
:102EB000814202D104F580146D1C6D1C2A786E2AA3
:102EC0001FD00CDC632A31D004DC002A8BD0582AB6
:102ED00011D1A3E0642A68D0692A0CD165E0732A75
:102EE0002ED004DC6F2A73D0702A04D19BE0752A9F
:102EF0006FD0782A6ED01046DDE90F129047761C0D
:102F000050E1C4F30250022806D0032809D0042857
:102F100001CF09D0066045E101CFF117C0E900619A
:102F200040E101CF06803DE106703BE117F8040B5C
:102F30008DF8000000208DF80100EB46012003E031
:102F400057F804BB4FF0FF3061074FF0000102D487
:102F50000DE008F10101884649450FDA8045F8DBAC
:102F60001BF808100029F4D108E008F10101884697
:102F70008142FADB1BF808100029F6D1DDE90F23A6
:102F8000AAEB08008146214600F039F9304400EBF5
:102F9000080604E0DDE90F121BF8010B9047B8F1B9
:102FA0000108F7D221464846F7E00A21C4F302534C
:102FB0004FF0000B0891022B04D001CFC117032B57
:102FC00009D00AE0FF1D27F00707F7E8020108E033
:102FD00032E01FE020E000B2C117042B01D140B263
:102FE000C117031E71F1000307DA4FF0000CD0EB9C
:102FF0000C006CEB01012D2302E0230504D52B23EB
:103000008DF82430012303E0E30701D02023F7E704
:10301000984658E00A2110E010210EE010204FF0F1
:10302000000B08900CE010214FF0000B44F004045A
:103030004FF00809089103E008214FF0000B0891B8
:10304000C4F30253022B04D001CF0021032B06D07E
:1030500006E0FF1D27F00707F7E8020103E080B252
:10306000042B00D1C0B24FF0000823072BD5702AE3
:1030700007D0DDF820C08CF0100C5CEA0B0C05D0FA
:103080000EE040238DF82430012308E050EA0103CC
:1030900006D030238DF824308DF825200223984661
:1030A000DDF820C08CF0080C5CEA0B0C0BD150EA68
:1030B000010301D1630706D530238DF824304FF08A
:1030C0000108A9F10109582A04D038A20B9208AAD4
:1030D0000A920BE03AA2F9E75B46089AFDF78BF8F3
:1030E0000B9B9B5C0A9A521E0A92137050EA0102D3
:1030F000F2D10A98ADEB000000F1200B600702D579
:1031000024F4803401E04FF00109D94502DDA9EB38
:103110000B0000E0002000EB0B0141440890AAEBFB
:10312000010AE00306D4DDE90F232146504600F0F2
:1031300066F806444FF0000908E009A911F80900F3
:10314000DDE90F12904709F10109761CC145F4DB56
:10315000E0030CD5DDE90F232146504600F04FF87F
:10316000064404E0DDE90F1230209047761C0899F0
:10317000481E08900029F5DC08E00A980A990078B2
:10318000491C0A91DDE90F129047761CBBF1000142
:10319000ABF1010BF1DC21465046DDE90F2300F0D5
:1031A0001CF806446D1C1BE609280100303132333F
:1031B0003435363738396162636465660000000073
:1031C000303132333435363738394142434445465D
:1031D0000000000030BCBDE8C08F2DE9F04104467E
:1031E00000251E461746880404D405E039462020F1
:1031F000B0476D1C641EF9D52846BDE8F0812DE965
:10320000F041044600251E469046C80301D53027EC
:1032100000E02027880404D505E041463846B04741
:103220006D1C641EF9D52846BDE8F0810549C2B27F
:103230000A85CA69C2F3C012002AFAD040220A6283
:1032400070470000004400401CB5FDF759FBFFF734
:10325000CFFA74494FF000600860FEF73FFEFEF7BA
:1032600049FEFEF7C5FEFEF735FFFEF79FFFFEF7AE
:1032700071FEFFF713FDFFF76FFDFFF7A1FB642061
:10328000FEF7ACFDFDF7E0FF0020FDF796FFFFF72E
:10329000E5F90026644D3046721E2E612E806E8048
:1032A000AE80810001F1E021C1F88021C1F88022C7
:1032B000401C0328F5DB62B6FFF70CFC5B4CDFF823
:1032C00070814FF400572078267001280DD102E05C
:1032D000C820FEF783FD39464046FEF764FC00280F
:1032E000F6D0FFF7C7FBFEF7FDFF52480090192309
:1032F000282226214620FEF74FFB4F484F490680E3
:103300004FF6FF7008804E48817B1020012960D065
:10331000454A10230C321168CDE900105022462195
:103320005FF03000FFF704FA46A0FFF72BFD46A040
:10333000FFF728FD217849A0FFF724FD4BA0FFF7F8
:1033400021FD53A0FFF71EFD58A0FFF71BFD63A052
:10335000FFF718FD45A0FFF715FD00BFFDF7E0F8EA
:10336000C00704D00120FCF7BDFFFFF7F1FAFDF71D
:10337000D7F8800702D50220FCF7B4FFFDF7D0F89C
:103380000007EBD50820FCF7ADFF0020FDF7B0F8F3
:1033900020B15EA0FFF7F6FC012020700120FDF7B0
:1033A000A7F820B15FA0FFF7EDFC022020700220FB
:1033B000FDF79EF820B161A0FFF7E4FC0320207028
:1033C000296903290FD2491C62A02961FFF7DAFCA1
:1033D000C4E715491023083150220968CDE90010CF
:1033E000462139209EE721785BA0FFF7CBFC2078AF
:1033F00001280AD04FF4FA70FEF7F0FCFDF75AFEF0
:10340000ACE7C820FEF7EAFC00E046463946304605
:10341000FEF7C9FB0028F4D0FFF72CFBFEF762FF94
:103420009CE7000008ED00E00000002080FF002085
:1034300000080048203C0008420000204000002016
:10344000E20700200D0A0000426F6F746C6F616428
:103450006572207630310D0A000000004250617222
:103460006D3A253032780D0A000000002A2A2A2AF7
:103470002A2A2A2A2A2A2A2A2A2A2A2A2A2A2A2AAC
:103480002A2A2A2A2A2A2A2A2A2A2A2A2A0D0A0003
:10349000507265737320413A20456E7465722053F3
:1034A00074616E6462790D0A0000000050726573E9
:1034B0007320423A2046726F6D2053656374696FC2
:1034C0006E2041207265616420465720616E642041
:1034D0007570646174650D0A0000000050726573B8
:1034E0007320433A2046726F6D2053656374696F91
:1034F0006E2042207265616420465720616E642010
:103500007570646174650D0A000000004B657920D8
:1035100041204C6F6E6720507265737365640D0AAD
:10352000000000004B65792042204C6F6E672050F0
:103530007265737365640D0A000000004B657920A5
:1035400043204C6F6E6720507265737365640D0A7B
:103550000000000025642C00706172615F5F2564CB
:103560005F5F5F0D0A000000000000000000000027
:103570000102030406070809A0860100400D0300AC
:10358000801A060000350C0040420F0080841E00A7
:1035900000093D0000127A000024F40000366E019C
:1035A0000048E801006CDC02000000000102030496
:1035B00001800180018001803FFC318C318C318C95
:1035C000318C318C3FFC318C018001800180018085
:1035D0000198619837FE31980FFFC19863FC7E66B1
:1035E0001BFF330CF30C33FC330C330C33FC030C98
:1035F00000003EFC36CC36CC36CC3F87370037FE59
:1036000036C63EC6366C3678363066787ECCCF8786
:103610000C180CD80CD818CC198C39863B067FFFB7
:10362000D8CC18CC18CC18CC198C198C1B3C1E1873
:10363000000000000000000000000000000000008A
:1036400000000010101010101010000010100000EA
:1036500000122424480000000000000000000000C8
:103660000000001212127E2424247E242424000050
:103670000000083C4A4A48380C0A0A4A4A3C0808F2
:1036800000000044A4A8A8B0541A2A2A4A44000002
:1036900000000030484848506EA494988976000095
:1036A000006020204000000000000000000000003A
:1036B000000204080810101010101008080402007E
:1036C00000402010100808080808081010204000CA
:1036D000000000001010D63838D61010000000008E
:1036E00000000000000808087F080808000000002B
:1036F00000000000000000000000000060202040EA
:1037000000000000000000007E000000000000003B
:1037100000000000000000000000000060600000E9
:10372000000002040404080810101020204040008B
:103730000000001824424242424242422418000043
:10374000000000083808080808080808083E0000BB
:103750000000003C4242420204081020427E000069
:103760000000003C4242020418040242423C0000B5
:10377000000000040C0C142424447F04041F0000E7
:103780000000007E4040407844020242443800007D
:10379000000000182440405C62424242221C0000AB
:1037A0000000007E420404080810101010100000F1
:1037B0000000003C4242422418244242423C0000A5
:1037C0000000003844424242463A020224180000F7
:1037D0000000000000001818000000001818000089
:1037E0000000000000000010000000000010101099
:1037F000000000020408102040201008040200000D
:103800000000000000007E00007E000000000000BC
:1038100000000040201008040204081020400000AE
:103820000000003C4242620408080800181800002A
:1038300000000038445AAAAAAAAAAA5C423C000086
:103840000000001010182828243C444242E70000E1
:10385000000000F8444444784442424244F80000E6
:103860000000003E42428080808080424438000058
:10387000000000F8444242424242424244F8000002
:10388000000000FC424848784848404242FC0000A2
:10389000000000FC424848784848404040E00000B2
:1038A0000000003C44448080808E84444438000002
:1038B000000000E7424242427E42424242E70000AC
:1038C0000000007C1010101010101010107C000070
:1038D0000000003E0808080808080808080888F0E2
:1038E000000000EE444850705048484444EE000048
:1038F000000000E0404040404040404042FE0000A8
:10390000000000EE6C6C6C6C6C54545454D6000087
:10391000000000C7626252524A4A4A4646E200002C
:103920000000003844828282828282824438000011
:10393000000000FC424242427C40404040E0000027
:103940000000003844828282828282B24C380600B3
:10395000000000FC4242427C4848444442E30000EC
:103960000000003E4242402018040242427C000017
:10397000000000FE921010101010101010380000FF
:10398000000000E74242424242424242423C0000C2
:10399000000000E7424244242428281810100000A8
:1039A000000000D654545454546C28282828000091
:1039B000000000E7422424181818242442E70000DD
:1039C000000000EE444428281010101010380000A9
:1039D0000000007E840408081020204242FC000001
:1039E000001E1010101010101010101010101E00DB
:1039F00000004020202010101008080404040202D7
:103A00000078080808080808080808080808780066
:103A1000001824000000000000000000000000006A
:103A2000000000000000000000000000000000FF97
:103A30000060100000000000000000000000000016
:103A40000000000000000038440C34444C360000F4
:103A500000000000C04040586442424264580000E8
:103A6000000000000000001C22404040221C00001A
:103A7000000000000602023E42424242463B000075
:103A8000000000000000003C42427E40423C00003A
:103A9000000000000C12107C10101010107C0000B0
:103AA000000000000000003E444438403C42423CDC
:103AB00000000000C040405C6242424242E7000019
:103AC000000000303000007010101010107C00005A
:103AD0000000000C0C00001C0404040404044478DE
:103AE00000000000C040404E4850704844EE0000C6
:103AF000000000107010101010101010107C00004A
:103B000000000000000000FE4949494949ED00005D
:103B100000000000000000DC6242424242E7000078
:103B2000000000000000003C42424242423C0000D3
:103B300000000000000000D864424242645840E0A7
:103B4000000000000000001A26424242261A020726
:103B500000000000000000EE3220202020F80000CD
:103B6000000000000000003E42403C02427C000099
:103B7000000000000010107C10101010120C00004B
:103B800000000000000000C642424242463B0000E6
:103B900000000000000000EE44442828101000003F
:103BA00000000000000000DB894A5A542424000071
:103BB000000000000000007624181818246E000091
:103BC00000000000000000E74224241818101060D4
:103BD000000000000000007E44081010227E00005B
:103BE000000304040404040408040404040403009B
:103BF0000808080808080808080808080808080845
:103C000000C0202020202020102020202020C000C4
:103C1000205A040000000000000000000000000026
:103C200000000108431065186518441022080000C0
:103C30000000000000000000000000000000000084
:103C400000000000000000000000000043106518A4
:103C5000861865186418431000000000000000007A
:103C60000000000000000000000000000000000054
:103C700022088618861886188618861886186418EA
:103C8000220800000000000000000000000000000A
:103C90000000000000000000220865188618861841
:103CA00086188618861886186518220800000000F5
:103CB0000000000000000000000000000000000004
:103CC0008618861886188618861886188618861804
:103CD00086186418210800000000000000000000A1
:103CE0000000000000002208861886188618861832
:103CF000861886188618861886188618641821086B
:103D000000000000000000000000000000000000B3
:103D100086188618861886188618861886188618B3
:103D20008618861886186418220800000000000013
:103D300000002108441086188618861886188618F0
:103D40008618861886188618861886188618861883
:103D50004310210800000000000000000000431094
:103D60008618861886188618861886188618861863
:103D70008618861886188618861886186518651895
:103D80006518861886188618861886188618861864
:103D90008618861886188618861886188618861833
:103DA00086188618651864106410651886188618B9
:103DB0008618861886188618861886188618861813
:103DC0008618861886188618861886188618861803
:103DD00086188618861886188618861886188618F3
:103DE00086188618861886188618861886188618E3
:103DF00086188618861886188618861886188618D3
:103E00008618861845182418241845186518861829
:103E100086188618861886188618861886188618B2
:103E20008618861886188618861886184518241845
:103E300024182418441865188618861886188618B9
:103E40008618861886188618861886188618861882
:103E50006518031803180318031803180318241807
:103E60006518861886188618861886188618861883
:103E700086188618861886186518241803180318DB
:103E800003180318031803182418651886188618D1
:103E90008618861886188618861886188618861832
:103EA000031803180318031803180318031803183A
:103EB00003184418661886188618861886188618F7
:103EC000861886188618651803180318031803182F
:103ED0000318031803180318031803184418861846
:103EE00086188618861886188618861886188618E2
:103EF00003180318031803180318031803180318EA
:103F000003180318031844186518861886188618AD
:103F10008618861845180318031803180318031881
:103F200003180318031803180318031803180318B9
:103F30004518861886188618861886188618451813
:103F40000318031803180318031803180318031899
:103F50000318031803180318031803182418241847
:103F60002418031803180318031803180318031858
:103F70000318031803180318031803180318031869
:103F800003180318241844182418241803180318B5
:103F90000318031803180318031803180318031849
:103FA0000318031803180318031803180318031839
:103FB0000318031803180318031803180318031829
:103FC0000318031803180318031803180318031819
:103FD0000318031803180318031803180318031809
:103FE000031803180310021002100310031803181B
:103FF00003180318031803180318031803180318E9
:1040000003180318031803180318031803100210E9
:1040100002100210021003100318031803180318EB
:1040200003180318031803180318031803180318B8
:1040300003100210021002100210021002100210EF
:104040000318031803180318031803180318031898
:1040500003180318031803180310021002100210AB
:1040600002100210021002100210031003180318AD
:104070000318031803180318031803180318031868
:1040800002100210021002100210021002100210A0
:10409000021002100318031803180318031803185A
:1040A0000318031803180310021002100210021064
:1040B0000210021002100210021002100210031867
:1040C0000318031803180318031803180318031818
:1040D0000210021002100210021002100210021050
:1040E0000210021002100210031003180318031824
:1040F000031803180310021002100210021002101D
:10410000021002100210021002100210021002101F
:1041100003100318031803180318031803180310D7
:1041200002100210021002100210021002100210FF
:1041300002100210021002100210021002100210EF
:1041400002100210021002100210021002100210DF
:1041500002100210021002100210021002100210CF
:1041600002100210021003100210021002100210BE
:1041700002100210021002100210021002100210AF
:10418000021002100210021002100210021002109F
:10419000021002100210021002100210021002108F
:1041A000021002100210021002100210021002107F
:1041B000021002100210021002100210021002106F
:1041C000021002100210021002100210021002105F
:1041D000021002100210021002100210021002104F
:1041E000021002100210021002100210021002103F
:1041F000021002100210021002100210021002102F
:10420000021002100210021002100210021002101E
:10421000021002100210021002100210021002100E
:1042200002100210021002100210021002100210FE
:1042300002100210021002100210021002100210EE
:1042400002100210021002100210021002100210DE
:1042500002100210021002100210021002100210CE
:1042600002100210011001080108011002100210D2
:1042700002100210021002100210021002100210AE
:1042800002100210021002100210021001100108A8
:1042900001080108010802100210021002100210A9
:1042A000021002100210021002100210021002107E
:1042B00001100108000000000000000000000108DB
:1042C000021002100210021002100210021002105E
:1042D000021002100210021002100108000000007B
:1042E000000000000000000001080210021002108F
:1042F000021002100210021002100210021002102E
:1043000000000000000000000000000000000000AD
:104310000000010802100210021002100210021028
:104320000210021002100110000000000000000046
:104330000000000000000000000000000108021062
:1043400002100210021002100210021002100210DD
:10435000000000000000000000000000000000005D
:1043600000000000000001080110021002100210FD
:104370000210021001080000000000000000000010
:10438000000000000000000000000000000000002D
:10439000010802100210021002100210021001089F
:1043A000000000000000000000000000000000000D
:1043B00000000000000000000000000001080108EB
:1043C00001080000000000000000000000000000E4
:1043D00000000000000000000000000000000000DD
:1043E00000000000010801080108010800000000A9
:1043F0004348494E4120444956450000D6D0C7B1F4
:10440000B9C9B7DD00000000284400080000002002
:104410006C000000A42D0008944400086C000020EB
:10442000941B0000B42D00080000000000000000F4
:10443000FC430008F04300080000000000000000FA
:10444000000000000000000000000000000000006C
:10445000000000000100000000000000000000005B
:104460000000000000093D000000FFFFFC430008C1
:10447000000000000000000000000000000000003C
:104480000000000000000208000000000000000022
:044490000000000028
:040000050800018D61
:00000001FF
